:02000002D0002C
:1040000000400D00E44D0D00000006000D0005010C
:084010000401DB0700000000C1
:04401800E04B0D006C
:10401C0009480A49884208B505D0094A824202D0AB
:10402C00121A00F095FD0748074A0021121A00F0F9
:10403C009DFD014808BD00BFD4E60320544D0D0082
:10404C003CE703203CE70320F0E7032070B5074E64
:10405C00074C00F0B5FAA41BA4080025A54200D11A
:10406C0070BD56F8043B98470135F7E7244D0D0019
:10407C00444D0D0000F013B808B500F011F8BDE880
:10408C00084000F05FBA00F021B900F027B90078C1
:10409C00B0FA80F0400970470123037070477047F5
:1040AC007047000008B5024B1B689B68019308BD64
:1040BC006802030008B5024B1B68DB68019308BD5E
:1040CC006802030008B5024B1B685B68019308BDCE
:1040DC001802030008B5024B1B685B69019308BD0D
:1040EC001802030008B5024B1B685B6C019308BDFA
:1040FC004802030008B5024B1B689B6C019308BD7A
:10410C004802030008B5024B1B685B69019308BDAC
:10411C006402030008B5024B1B681B68019308BDC1
:10412C003C02030008B5024B1B68DB68019308BD19
:10413C003C02030008B5024B1B681B69019308BDC8
:10414C003C02030008B5024B1B685B69019308BD78
:10415C003C02030008B5024B1B689B69019308BD28
:10416C003C02030008B5024B1B68DB69019308BDD8
:10417C003C02030008B5024B1B689B6A019308BD07
:10418C003C02030008B5024B1B681B68019308BD79
:10419C004C02030008B5024B1B681B69019308BD58
:1041AC004C02030008B5024B1B685B69019308BD08
:1041BC004C02030008B5024B1B689B69019308BDB8
:1041CC004C02030008B5024B1B68DB69019308BD68
:1041DC004C02030008B5024B1B681B6A019308BD17
:1041EC004C02030008B5024B1B685B68019308BDC9
:1041FC002002030008B5034B1B68D3F888300193E9
:10420C0008BD00002002030008B5034B1B68D3F85F
:10421C009430019308BD00002002030008B5024B46
:10422C001B685B68019308BD4002030008B5024B94
:10423C001B689B68019308BD4002030008B5024B44
:10424C001B68DB68019308BD4002030008B5024BF4
:10425C001B681B69019308BD4002030008B5024BA3
:10426C001B685B69019308BD4002030008B5024B53
:10427C001B689B69019308BD4002030008B5024B03
:10428C001B68DB69019308BD4002030008B5024BB3
:10429C001B681B6A019308BD4002030008B5024B62
:1042AC001B681B6B019308BD4002030008B5024B51
:1042BC001B685B6B019308BD4002030008B5024B01
:1042CC001B68DB6B019308BD4402030008B5024B6D
:1042DC001B681B68019308BD1C02030008B5024B48
:1042EC001B685B68019308BD1C02030008B5024BF8
:1042FC001B685B6C019308BD1C0203000022406824
:10430C001146FFF7C3BF002240681146FFF7CEBF2E
:10431C0040680022FFF7C2BF4068002281F0010113
:10432C00FFF7ACBF002340681A461946FFF79EBF43
:10433C00002340681A461946FFF790BF00224068D8
:10434C001146FFF783BF002240681146FFF76EBF8E
:10435C00406800220221FFF771BF002340681A4613
:10436C00FFF75CBF024B03225A60024A1A60704787
:10437C0040E70320FC4B0D0010B50446006818B153
:10438C00FFF7ACFF0023236010BD10B50446FFF708
:10439C00F3FF204610BD000010B5094B094C02225A
:1043AC0000201A60084B2060A080A071A360FFF76A
:1043BC0019FF2046054A0649BDE8104000F0B2BB83
:1043CC0054E7032048E703200000FFFF3CE70320ED
:1043DC0097430D0010B50446006808B1FFF78AFE3C
:1043EC00204610BD10B5064C002320462360FFF775
:1043FC0079FE2046034A0449BDE8104000F092BB08
:10440C0058E703203CE70320E1430D00F8B50646CE
:10441C000D468F180024BD420CD0336815F8011BD3
:10442C009B6830469847031E01DB1C44F3E7002CC5
:10443C0008BF1C462046F8BD13B50446084659B1C2
:10444C00019100F0BFFB23680199DB68024620460E
:10445C0002B0BDE81040184702B010BD03689B685D
:10446C00184730B58BB000238DF82430012A98BF43
:10447C000A2209AC0D46B1FBF2F101FB125303F019
:10448C00FF03092B94BF30333733DBB2AA4204F855
:10449C00013DEFD92146FFF7CFFF0BB030BD000037
:1044AC00014B024A1A6070475CE70320284C0D0050
:1044BC00024B1A68024B1A60704700BFD4E6032007
:1044CC0060E7032010B58368044613B1032201464C
:1044DC009847204610BD10B50446FFF7F3FF204661
:1044EC0010BD00000348044A04490023836000F017
:1044FC0019BB00BF64E703203CE70320E3440D0035
:10450C00014B1860704700BFD8E6032008B50B4B71
:10451C0043B100F051F903681B699847002801DD8D
:10452C00AFF30080064B43B100F010FA03681B692F
:10453C009847002801DDAFF3008008BD00000000A3
:10454C000000000008B5FFF7E1FFFFF7C3FD014BCA
:10455C00186008BDECE703200248034A0349121A0D
:10456C0000F0F6BA00F4032004F40320504D0D00C3
:10457C0007B5002300931A466FF07701FFF744FE4E
:10458C0003B05DF804FB000007B543880A2B08D084
:10459C00502B0BD1094B1B684BB103B05DF804EBEE
:1045AC001847FFF7E5FF03B05DF804FB0023009309
:1045BC001A466FF07701FFF727FEF4E778E7032040
:1045CC0038B5124C1248134D0021FFF78FFE2368AB
:1045DC00AB42114B0CBF012200221A7002D0FFF724
:1045EC00BBFF2560FFF76EFD044600F0C7FA0B4BCE
:1045FC0013B12046AFF3008000210848FFF75EFEA0
:10460C00BDE8384006480021FFF7F4BD00F4032054
:10461C000D450D001E1C279A74E7032000000000B6
:10462C0095450D00704710B51821044600F07FFA2F
:10463C00204610BDF0B5037D062B8DB00E4600F163
:10464C0004074FF0000412D000F1080515F8011D05
:10465C000A223046FFF705FFAF42044419D0002C64
:10466C00F4D02E213046FFF7F9FE0444EEE72F2359
:10467C006A4639460A208DF80040FFF743FD68462C
:10468C0000F0A0FA33680246DB686946304698476A
:10469C00044620460DB0F0BD10B5054B0446112262
:1046AC0040F8043B002100F061FA204610BD00BF29
:1046BC00504C0D000346074A10B543F8042B01F18A
:1046CC00100251F8044B43F8044B9142F9D10A788B
:1046DC001A7010BD504C0D0010B59DF8084044EAFE
:1046EC00032343EA024242EA016104234160037559
:1046FC0010BD13B5CB7800938B784A780978FFF707
:10470C00EBFF02B010BD41747047704708B5002133
:10471C00007CFFF74FFD40EAE07008BD08B50121B1
:10472C00007CFFF747FD40EAE07008BD08B5007C4F
:10473C00FFF738FD20EAE07008BD08B5007CFFF7F4
:10474C0029FD20EAE07008BD13B50446007C0191F8
:10475C00FFF728FD0028019901DC607C20B1207C4A
:10476C00FFF730FD20EAE07002B010BD007CFFF7CF
:10477C0031BD10B51421044600F0D9F9204610BD06
:10478C0010B54FF47A73044608460021C4E90113AE
:10479C00044B23600123207463741146FFF7F2FC71
:1047AC00204610BD644C0D0010B5142204460021A7
:1047BC0000F0DCF9204610BD10B5104C88B003A8F1
:1047CC00FFF7F2FF2178BFF35B8F11F0010111D1DC
:1047DC0020460191FFF75BFC019958B103AA0848E8
:1047EC00FFF7CEFF2046FFF757FC064A0649044860
:1047FC0000F098F9024808B010BD00BF7CE7032018
:10480C0080E703203CE7032017470D000022406897
:10481C001146FFF71BBD002240681146FFF736BD5D
:10482C00002240681146FFF741BD40680022FFF7A7
:10483C0035BD4068002281F00101FFF71FBD002348
:10484C0040681A461946FFF711BD002340681A4606
:10485C001946FFF703BD002240681146FFF7E6BC7E
:10486C00406800220221FFF7E9BC002340681A4689
:10487C00FFF7D4BC084B10B528242246184600215B
:10488C0000F074F9054B04804FF0FF3242600422B3
:10489C005A60034A1A6010BD9CE7032094E703207A
:1048AC00944C0D0070474174704708B5007CFFF7BD
:1048BC0061FC20EAE07008BD08B5007CFFF73AFC0B
:1048CC0020EAE07008BD08B5007CFFF743FC40EA25
:1048DC00E07008BD08B5007CFFF734FC40EAE070DE
:1048EC0008BD007CFFF73EBC37B5457C04462DB1B6
:1048FC00207C03B0BDE83040FFF714BC007C019174
:10490C00FFF738FC00280199F2DC284603B030BDD3
:10491C0010B51421044600F00AF9204610BD000021
:10492C0010B54FF0000C0446084611464FF47A724D
:10493C00C4E901C2044A22600122207462741A463E
:10494C00FFF7E8FB204610BDC84C0D00F7B51B4C1B
:10495C0026684EB98420FFF796FB054618B18422D1
:10496C00314600F003F92560154D2F684FB98420AE
:10497C00FFF789FB064618B18422394600F0F6F899
:10498C002E60104E3178BFF35B8F11F0010112D104
:10499C0030460191FFF77BFB019960B122682B68CF
:1049AC000948FFF7BDFF3046FFF776FB074A084979
:1049BC00054800F0B7F8044803B0F0BDC8E7032081
:1049CC00CCE70320C4E70320D0E703203CE7032017
:1049DC00B1480D00002340681A46FFF71FBC406821
:1049EC0000220221FFF72ABC002240681146FFF783
:1049FC001DBC002240681146FFF728BC002340680C
:104A0C001A461946FFF72ABC002340681A46194675
:104A1C00FFF72CBC4068002281F00101FFF72EBC8F
:104A2C0040680022FFF73ABC002240681146FFF7AD
:104A3C003DBC002240681146FFF728BC2DE9F0432D
:104A4C00002495B016460D460746FFF725FE214675
:104A5C0018220EA8009400F089F84023CDE90C34FC
:104A6C0021466B460CAA3046FFF724FB044600286F
:104A7C0046D1024601216868FFF7E8FB0221804617
:104A8C0022466868FFF7E2FB009E81462146002E15
:104A9C0036D0002934D17368022B03D00A2B0BD0EB
:104AAC00F669F4E7B8F1000F04D0716938460431A7
:104ABC00FFF71FFE4146F3E7B9F1000F01D149465C
:104ACC00EEE77469102201A800F050F806238DF867
:104ADC00143001AD04F108031834186859682A46DB
:104AEC0003C20833A3421546F7D101A906A807ADA6
:104AFC00FFF7E0FD0FCD3C1D0FC42B682370DEE7E4
:104B0C000098FFF7CFFA384615B0BDE8F0830000E7
:104B1C00024B034A1A6000225A607047E4E70320F4
:104B2C00F84C0D000B460146184600F003B8FFF791
:104B3C00ACBA000010B5054C13462CB10A46014620
:104B4C000220AFF3008010BD2046FCE700000000FF
:104B5C000A44914200F1FF3300D1704710B511F8AF
:104B6C00014B03F8014F9142F9D110BD02440346A9
:104B7C00934200D1704703F8011BF9E738B50D4B90
:104B8C001D68AB6B04467BB91820FFF79FFB0A4AE4
:104B9C000A4BA863C0E90023094B83600B23838174
:104BAC0001220023C0E90423AB6B00221C615A6173
:104BBC0038BD00BFD8E603200E33CDAB34126DE602
:104BCC00ECDE0500034613F8012B002AFBD1181A62
:104BDC00013870471D400D0059400D0081400D00FB
:104BEC0085400D00000000000000000000000000E7
:104BFC0067430D005D430D0053430D0049430D0009
:104C0C003D430D0031430D0025430D001D430D00A8
:104C1C0013430D0009430D00494A0D0061707000EB
:104C2C0025592D256D2D25645425483A254D3A25B9
:104C3C0053257A0061736374696D65000000000090
:104C4C000000000041460D0031460D0033460D00BA
:104C5C00000000000000000017470D007F470D000A
:104C6C0055470D0019440D0047470D0019470D001D
:104C7C0029470D0079470D0039470D0013470D00EA
:104C8C00000000000000000077480D006D480D008A
:104C9C0063480D0019480D0057480D004B480D0096
:104CAC003F480D0037480D002D480D0023480D00DE
:104CBC00494A0D000000000000000000B1480D0042
:104CCC001D490D00F5480D0019440D00C5480D0097
:104CDC00E1480D00D3480D00EF480D00B3480D001E
:104CEC00B7480D000000000000000000E1490D0075
:104CFC00EB490D00F5490D00FF490D00094A0D0067
:104D0C00154A0D00214A0D002D4A0D00354A0D00A3
:104D1C003F4A0D00494A0D0071430D00A5430D009B
:104D2C00F1430D00AD440D00BD440D00F1440D00E8
:104D3C0081480D001D4B0D0000000000000000001C
:044D4C000000000063
:044D5000000000005F
:104D5400404C0D00DCE603200000000000000000D1
:104D6400000000000000000000000000000000003F
:104D7400000000000000000000000000000000002F
:104D8400000000000000000000000000000000001F
:104D9400000000000000000000000000000000000F
:104DA40000000000000000000000000000000000FF
:084DB4000000000000000000F7
:104DBC00FFFFFFFF00000102030405060708090AB4
:104DCC000B0C0D0E0F101112131415161718191AAF
:084DDC001B1C1D1E1F202800F6
:044DE40078563412B7
:04000003D000401CCD
:00000001FF
