:02000002D0002C
:1040000000400D0078A70D00000006000D0005011E
:084010000401DB0700000000C1
:04401800E8970D0018
:1040200009480A49884208B505D0094A824202D0A7
:10403000121A05F067FB0748074A0021121A05F01B
:104040006FFB014808BD00BFA4DF0320CCA60D0014
:1040500028E0032028E00320F0E7032070B5074E96
:10406000074C03F00BFEA41BA4080025A54200D1B9
:1040700070BD56F8043B98470135F7E794A60D004C
:10408000B8A60D0000F00ABE08B500F0B5FBBDE80B
:10409000084003F0B5BD03F099B803F097B803F0FA
:1040A0009DB80078B0FA80F0400970470123037092
:1040B00070471068704770B5044600F5D47500F17C
:1040C0001806B54204D0143D284603F04BFBF8E730
:1040D000201D03F047FB204670BD000038B5114994
:1040E000054603F042FC044650B104F08BF90E493A
:1040F00003F0F5FC0D4B012018700D4B186038BD16
:104100000C49284603F031FC0028F8D004F07AF975
:10411000094903F0E4FC054B1C70054B02201C60B0
:10412000EDE700BFFC970D0001980D00B8DF0320FC
:10413000A4DF032018980D001D980D0010B503682A
:1041400004469B689847A368013BA3602BB923688A
:104150002046DB68BDE81040184710BD1FB500239E
:10416000019303930C23ADF80430044B0293042213
:1041700001AB03F003F805B05DF804FBB3400D009C
:10418000C06820B183888B4201D08068F9E770470E
:10419000F8B5037D05460F4616466BB100680E2143
:1041A000FFF7EEFF80B1037BBB4207D1C3893288A2
:1041B000934201D01343C3812846F8BD806818B1EB
:1041C00083880E2BFAD1EDE70B49142004F075FC1F
:1041D000044670B11422002105F0A2FA074B2360B7
:1041E0000E23A3802B69A36033882773E3812C619E
:1041F000E2E72875E0E700BF90A60D00100003007D
:1042000038B50A49054603F0B0FB044628B1012140
:10421000BDE83840052004F09CBB0549284603F062
:10422000A4FB08B12146F3E738BD00BF52A40D003E
:1042300035980D0038B50A49054603F096FB04464B
:1042400028B10121BDE83840042004F082BB0549B3
:10425000284603F08AFB08B12146F3E738BD00BFCA
:1042600052A40D0035980D001FB52149044603F0F6
:104270007CFB00B304F0C6F81E4903F030FC1E4975
:10428000684603F0BAFA6846FFF7BAFF684603F0DB
:1042900069FA1A49684603F0B0FA6846FFF7CAFFA0
:1042A000684603F05FFA164A00231370154A01208E
:1042B000136004B010BD1449204603F056FB0028DB
:1042C000F7D004F09FF8114903F009FC0B49684648
:1042D00003F093FA6846FFF793FF684603F042FA4B
:1042E000074A01231370074A02201360E1E700BF69
:1042F00039980D0040980D0052A40D0035980D001E
:10430000A8DF0320ACDF03203C980D0049980D0086
:1043100030B585B0054604F075F8224903F0DFFB9F
:104320002149284603F021FB0446E8B11F4B2049F0
:1043300001241C601F4B1C701F4B68461C6003F05F
:104340005CFA6846FFF776FF684603F00BFA1B49F4
:10435000684603F052FA6846FFF752FF684603F0DA
:1043600001FA204605B030BD1549284603F0FDFA94
:104370000028F7D00D4B11491C60684603F03DFA48
:104380006846FFF757FF684603F0ECF908496846AE
:1043900003F033FA6846FFF733FF684603F0E2F9AB
:1043A0000220DFE74F980D0061980D004CE00320DC
:1043B00052A40D00A8DF0320ACDF032035980D00C8
:1043C00069980D000000000030B585B004F01AF8BF
:1043D0002F4903F084FB2F4840F24C4102F024FAAD
:1043E00018B92D4B48F6B8021A6040F24C412948E2
:1043F0002A4D2B4C02F0F6F940F24C41286025483A
:1044000002F001FA40F24C412060224802F01FFA0B
:104410004FF48B7390FBF3F0224B23491860234831
:1044200003F03EFA2049224803F03AFA286804F0E3
:104430009DFC15A3D3E9002304F02CFE41EC100BE6
:104440000621684603F051FA6946184803F078FAE5
:10445000684603F087F9206804F088FC0AA3D3E9D2
:10446000002304F017FE41EC100B0621684603F010
:104470003CFA69460E4803F063FA684603F072F9A5
:1044800005B030BDAFF3008000000000D0126341E2
:1044900070980D0078E00320B0DF032060E0032077
:1044A00074E00320DCE5032088A10D0050E0032028
:1044B00064E0032008B504F0A9FA0146084802F0B8
:1044C000C9FA48B103F09EFF064903F008FBBDE8B6
:1044D0000840034802F060BC03F094FF0249F4E78F
:1044E00024E40320A1980D00BA980D0010B50A48E5
:1044F0000022022102F06EFA044630B903F082FF76
:10450000064903F0ECFA204610BD03F07BFF044996
:1045100003F0E5FA0120F7E730E00320E1980D0011
:1045200019990D0010B504F071FA422201460E48A7
:1045300002F064F8044680B903F064FF0B4903F00D
:10454000D8FAFA220121084802F0CCF840F24C4196
:10455000054802F071F8204610BD03F053FF0449EE
:1045600003F0BDFAEDE700BF78E0032030990D00BD
:1045700074990D0008B503F045FF0A4903F0AFFA3E
:10458000094802F0C6F908B9002008BD064802F043
:10459000E9F90028F8D003F035FF044903F09FFA49
:1045A0000120F2E781990D0030E0032093990D007E
:1045B0001FB503F027FF154903F091FAFFF704FF39
:1045C000FFF7D8FFF8B1124B1B680A2B1BDD114B0C
:1045D0001149012268461A7003F00FF96846FFF787
:1045E00043FE684603F0BEF80C49684603F005F93F
:1045F0006846FFF78DFE684603F0B4F803F002FF4B
:10460000074903F06CFA05B05DF804FBA6990D00AC
:10461000DCE50320F0E503203C980D0061980D00D7
:10462000B2990D001FB50B4B02681B788DF8003056
:1046300002A809493C2303F0A1FC039828B1436870
:10464000013B43600BB9FFF779FD002005B05DF831
:1046500004FB00BF2CE00320C6990D0000B589B013
:10466000002835D002F0DCFB1B4A1C49136809689E
:10467000C31A8B422CDD106003F0C4FE184903F00E
:104680002EFA184904A803F0B8F804A8FFF740FE72
:1046900004A803F067F81449684603F0AEF813491C
:1046A000684603F04DF91249684603F04DF9114987
:1046B000684603F045F9694604A803F0DEF804A84B
:1046C000FFF7B0FF04A803F04DF8684603F04AF87E
:1046D00009B05DF804FB00BFD8E50320B4DF032078
:1046E000B2990D0061980D00D1990D0050E00320A2
:1046F000199A0D0064E003201FB503F083FE2E4CD1
:104700002E4903F0ECF92E49684602F06BFA69462F
:10471000204603F0BDF8684603F024F829492046F6
:1047200003F023F948B903F06DFE274903F0C0F9FF
:1047300003F068FE216803F0D2F9322003F00CFA8E
:1047400022491D4803F011F958B103F05BFE2049DE
:1047500003F0C5F91F4A002313701F4A136004B009
:1047600010BD1E49144803F000F904460028ECD19E
:104770001B49114803F0F9F8B8B103F043FE194999
:1047800003F0ADF9134B18491C70134B1C60174B09
:1047900068461C7003F031F86846FFF74BFD684629
:1047A00002F0E0FF124B1C60D9E703F02BFE114929
:1047B00003F095F9D3E700BFF4E503201B9A0D0041
:1047C00024E40320299A0D00309A0D00369A0D003A
:1047D000449A0D00A8DF0320ACDF0320569A0D0099
:1047E000639A0D00709A0D0035980D00F0E50320D6
:1047F0004CE00320869A0D002DE9F04F012193B083
:104800000420DFF80CA304F0A4F80FF2FC29D9E986
:1048100000895746A44EDAF800303268A34DA44C04
:10482000DFF8F0B29B1A2A68934203DB2378002B4F
:1048300000F08D80FFF7C8FD02F0F2FA3860022028
:1048400004F0A0F801289B4D0FD1207003F0DAFD91
:10485000994903F044F92378CBB92B786BB19BF8D5
:104860000030BBB9FFF7A4FE14E003F0CBFD934981
:1048700003F035F900232370EFE791490CA802F00B
:10488000BCFF0CA8FFF7F0FC0CA802F06BFF2B7824
:10489000002BE4D123783BB12B78002B47D0FFF7D6
:1048A0002BFF2378002B3FD19BF800302BB1854B99
:1048B0001878FFF7D3FEFFF71FFF834E3368012BF5
:1048C00004D103F09FFD814903F009F98049814833
:1048D00002F0E6FF804B186804F048FA42464B4667
:1048E00004F0D8FB7D4B1B680493336803937C4B27
:1048F0001B6802937B4B044618680D4604F036FA99
:1049000042464B4604F0C6FB2246CDE900012B4649
:104910000CA8754903F03CF80CA96E4802F0B8FFEA
:104920000CA802F01FFF75E72B78002BBCD103F019
:1049300069FD6E4903F0D3F86D490CA802F05DFFE4
:104940000CA8FFF75DFC0CA802F00CFFACE79BF88D
:104950000040002C40F0A48059490CA802F04DFF03
:104960000CA8FFF781FC0CA802F0FCFE21460420F5
:1049700003F0EFFF01215F4BADF839400DA8CDE901
:104980000F440C908DF83B408DF844100D938DF83A
:104990003810FFF7F5FB002854D08389052B4BD145
:1049A000012383739DF844305BB1534B0C98D3F8CB
:1049B00000900421FFF7E4FB8046002857D0C0F8A0
:1049C0000C90002309AA04210CA8ADF82430FFF7AD
:1049D000DFFB0CA909A802F093FD099B002B59D01D
:1049E0009B880E2B56D1454B3A4A1B788DF80030E8
:1049F00007A8126842493C2303F0C0FA089828B17E
:104A00004368013B43600BB9FFF798FB4EF6602308
:104A10002B6002F005FA306002F002FA3860099863
:104A200008B102F0DBFB1098002839D084680C2113
:104A300004F041F82046F7E7806818B18388012B1D
:104A4000FAD1A8E72F49102004F037F8044620B324
:104A50001022002104F064FE109A264B2360A2600D
:104A600001230522A380A281A37310949AE725490C
:104A7000102004F022F8044678B11022414604F0D8
:104A80004FFE1C4B23600423A380109B1094C4E9A9
:104A9000023996E742F21073BAE78DF8444090E786
:104AA00013B0BDE8F08F00BFD4E50320B0DF0320D2
:104AB000D0E50320A8DF0320959A0D00A09A0D00F1
:104AC0003C980D00B8DF03204CE00320DE9A0D0077
:104AD00088A10D00E0E5032060E00320ACDF0320A7
:104AE000A4DF032074E00320EF9A0D00CF9A0D009D
:104AF00052A40D0010000300BCDF03202CE00320B3
:104B0000049B0D0090A60D0000000000D012634130
:104B100048E00320F0E503202DE9F74F2C492D480C
:104B2000FFF71CFB2C4983462C48FFF717FB2C4949
:104B30000023022282462B4802F020FB2A49002350
:104B400002228146294802F019FB2949002302224A
:104B50008046284802F012FB00232749012207461D
:104B6000264802F00BFB264A26490446264803F055
:104B700012F9264A26490190234803F00CF92549E9
:104B8000254A0646204803F006F9244905462448EC
:104B9000FFF7E4FABBF1000F0ED0BAF1000F0BD013
:104BA000B9F1000F08D0B8F1000F05D027B1019B73
:104BB00013B10EB105B13CB903F024FC194903B09F
:104BC000BDE8F04F02F08BBF03F01CFC1649F6E77E
:104BD00050E003200B9B0D0064E00320149B0D00AC
:104BE000A4DF03201E9B0D004CE00320E69A0D007D
:104BF000ACDF032043980D00A8DF0320289B0D00A5
:104C000061980D0011430D006B7D0D003C980D0067
:104C100069420D00DD400D00329B0D00E0E50320F0
:104C2000049B0D003A9B0D004F9B0D0037B50546C8
:104C3000002101A802F009FB01A835B302F084FBB2
:104C400001A802F0ADFB01A802F04FFB1DB340F03C
:104C50003804E4B203F002FF6B2103F04FFD03F0D0
:104C6000FDFE036805219B68984703F0F7FE036883
:104C700021469B68984703F0F1FE012103F059FD9E
:104C800001A802F0F1FA03B030BD02F074FB01A8F4
:104C900002F09BFBD7E700F0C604DBE708B5FFF79F
:104CA0003BFF03F0AFFB4FF4E13103F09FFB03F058
:104CB000ADFE03F0EDFC0020FFF7B8FF002105205A
:104CC00003F036FE0121042003F032FE012104200E
:104CD00003F03FFE0121032003F02AFE0021032000
:104CE00003F037FE0121022003F022FE0021022002
:104CF00003F02FFEFFF7DEFBFFF7F8FBBDE80840EF
:104D0000FFF710BCF8B5224B224D234F234C012650
:104D10001E702946384602F070FD3846204F214A61
:104D2000214603F0C3FE2946384602F066FD3846A8
:104D30001D4F1C4A214603F0B9FE2946384602F0B1
:104D40005CFD3846194F174A214603F0AFFE29464D
:104D5000384602F052FD134A2146384603F0A6FEBB
:104D60000021304602F084F9114C124800F02CF872
:104D70001D21114801F07CFDD721204601F04EFE97
:104D80002046084A0D49BDE8F84003F08FBE00BF39
:104D90002CE0032088A10D00E0E5032065770D00DD
:104DA00050E0032028E0032064E00320F4E5032022
:104DB00024E4032078E0032030E00320B7400D0016
:104DC0000368C9B29B6818474221A0F8481200F254
:104DD0004B21C0F858131C4910B5202200F24D2475
:104DE000C0E9DA41027000F24D340022C0E9D71266
:104DF000C0E9DE414FF40071A0F88013642180F80F
:104E000082134FF00121C0E9E211C0F8901390F82D
:104E10009C13A0F8F42062F3C301C0E9D422C0E9D6
:104E2000DC22A0F8342280F83622C0F8402280F834
:104E30004A22C0F86423C0F88423A0F8A823027192
:104E400080F89C1310BD00BF00000202D0F84002A1
:104E500010B103689B6818477047704710B5B0F8E9
:104E6000F430012B044614D10A0202F44072A4F873
:104E7000A8230133A4F8F4302046FFF7EEFFB4F87E
:104E8000A833B4F8F4209A4204BF002384F83432E3
:104E900010BD022BEDD1B0F8A8230A430632E6E795
:104EA0002DE9F84304460D4690F84812D0F8380230
:104EB00003F020FCFF21D4F83802FFF781FFD4F87B
:104EC0003802002103F035FC064610B10C20BDE885
:104ED000F88394F84812D4F8380203F00BFCD4F8A5
:104EE00038020368B5219B689847D4F838020368F4
:104EF00062219B689847D4F83802297803689B6838
:104F00009847D4F83802697803689B689847A9786D
:104F1000D4F83802FFF754FF6988D4F83802090A38
:104F2000FFF74EFFD4F83802314603F002FC0028A8
:104F3000CCD1B5F802800646B8F1010FD4F838029A
:104F400094F8481226D927785FFA88F2974228BF4A
:104F5000174603F0CFFB4FF00009BFB21FFA89F3E9
:104F60009F42D4F8380209D9AB680268334492688A
:104F700013F80910904709F10109EFE7002103F048
:104F8000D8FB0028A2D13E44A8EB0707B6B21FFA0F
:104F900087F8D1E703F0AEFBB8F1010F06D1D4F8E2
:104FA0003802A96803684246DB689847D4F838029B
:104FB000297B03689B689847D4F83802697B0368AB
:104FC0009B689847D4F8380203F0B7FB00283FF4F9
:104FD0007EAF7BE770B50546D0F83C0203680C460F
:104FE0009B68B5219847D5F83C02036862219B680D
:104FF0009847D5F83C02217803689B689847D5F814
:105000003C02617803689B689847D5F83C02A17818
:1050100003689B689847D5F83C0261880368090AD1
:105020009B6898470026D5F83C0262880368B24224
:105030009B6804DDA268915D98470136F3E7217B08
:105040009847D5F83C02617B0368BDE870409B68D7
:10505000184730B54A780D784C882A4454FA82F0C3
:1050600000EB142355FA82F203F0FF0352FA80F2A8
:105070000B7313444B73002293B29C420AD98B6882
:10508000087B9B5C0344487BDBB20B7303444B738C
:105090000132F1E730BD90F89633194490F8973318
:1050A000C9B280F89613194480F8971370470144E9
:1050B00091F84F3291F84E021B0443EA002391F815
:1050C0004D02034391F8500243EA0060704700002C
:1050D00010B50C78012C024603D0282C00F0678113
:1050E00010BD0B68F14923F0FF038B4240F0D480E0
:1050F0000021FFF7DCFF0021C2F8D0001046FFF7C7
:10510000D6FF4FF47A73B0FBF3F101FB1303A2F85F
:10511000783092F8521292F8513243EA0123A2F801
:10512000703092F8533282F8723092F8543282F82A
:10513000733092F8553282F8743092F8563282F811
:10514000753092F8573282F8763092F8583203F080
:105150000101C3F3400382F8801082F881301046C9
:105160001021FFF7A4FF92F8613282F8AD3092F877
:105170006232D06703F0010182F88210C3F340016C
:1051800082F883109911C3F3401382F8843092F8A7
:10519000643282F8AC3082F8AE1010461821FFF766
:1051A00086FF1C21C2F88C001046FFF780FF2021EB
:1051B000C2F888001046FFF77AFF2421C2F8900059
:1051C0001046FFF774FF2821C2F894001046FFF73D
:1051D0006EFF2C21C2F898001046FFF768FF3021BF
:1051E000C2F89C001046FFF762FF3421C2F8A0000D
:1051F0001046FFF75CFF3821C2F8A4001046FFF705
:1052000056FF3C21C2F8A8001046FFF750FF40218E
:10521000C2F8B0001046FFF74AFF4421C2F8B400BC
:105220001046FFF744FF4821C2F8B8001046FFF7C8
:105230003EFF92F89A1292F89932C2F8BC0043EA03
:105240000123A2F8C03092F89B32542103F00103ED
:10525000104682F8C230FFF72AFF92F8A61292F8A1
:10526000A532C2F8C40043EA0123A2F8C83092F87C
:10527000A81292F8A73243EA0123A2F8CA304FF0ED
:10528000FF33C2F8983392F89C3323F0070343F0BE
:10529000070382F89C3323E785498B4247D10421D9
:1052A000FFF705FF0821C2F8D0001046FFF7FFFE08
:1052B0000C21C2F8D8001046FFF7F9FE1021C2F801
:1052C000D4001046FFF7F3FE1421C2F8DC001046AC
:1052D000FFF7EDFE92F8653282F8F33092F866320D
:1052E00082F8F23092F8673282F8F03092F8683241
:1052F000C2F8E00082F8F1301C211046FFF7D7FE1B
:105300002021C2F8E8001046FFF7D1FE92F898334A
:10531000C2F8EC0043F0010382F89833B2F8A033EE
:1053200043F4FF5343F01D03A2F8A033D8E66149CC
:105330008B427FF4D5AE90F8521290F8513243EA86
:105340000123A0F8F63090F8541290F8533243EA53
:105350000123A0F8F83090F8561290F8553243EA3D
:105360000123A0F8FA3090F8581290F8573243EA27
:105370000123A0F8FC3090F85A1290F8593243EA11
:105380000123A0F8FE3090F85C1290F85B3243EAFB
:105390000123A0F8003190F85E1290F85D3243EAE4
:1053A0000123A0F80231FF2380F8A23398E60B68AE
:1053B000414923F0FF038B422CD10021FFF777FEF8
:1053C0000821C2F8A8011046FFF771FE0C21C2F8AF
:1053D000AC011046FFF76BFE1021C2F8B001104679
:1053E000FFF765FE1421C2F8B4011046FFF75FFE17
:1053F0001821C2F8B8011046FFF759FE1C21C2F867
:10540000BC011046FFF753FE0123C2F8C00182F829
:10541000A43365E629498B4252D10821FFF747FEA4
:105420000C21C2F8CC011046FFF741FE1021C2F852
:10543000D0011046FFF73BFE1421C2F8D4011046FC
:10544000FFF735FE1821C2F8D8011046FFF72FFEEE
:105450001C21C2F8DC011046FFF729FE2021C2F80A
:10546000E0011046FFF723FE0021C2F8E4011046D8
:10547000FFF71DFEC0F3002382F8C431C0F34023C0
:1054800082F8C531C0F3802382F8C631C0F3C0234F
:1054900082F8C731C0F3003382F8C831C0F340301E
:1054A000012382F8C90182F8A53319E600075C00E0
:1054B0000014240000041200000120000002240057
:1054C000B3F5900F7FF40CAE0021FFF7F0FD92F8DA
:1054D000521292F85132C2F8E80143EA0123A2F8CD
:1054E000EC3192F8533282F8EE3192F8543282F86D
:1054F000EF3192F8553282F8F03192F8563282F854
:10550000F13192F8573282F8F23110460C21FFF750
:10551000CEFD92F85D3282F8FC31C2F8F801142118
:105520001046FFF7C4FD1821C2F804021046FFF729
:10553000BEFD1C21C2F808021046FFF7B8FD20216D
:10554000C2F80C021046FFF7B2FD2421C2F8100287
:105550001046FFF7ACFD2146C2F814021046FFF7D3
:10556000A6FD2C21C2F818021046FFF7A0FD30213D
:10557000C2F81C021046FFF79AFD3421C2F820023F
:105580001046FFF794FD3821C2F824021046FFF7B9
:105590008EFD3C21C2F828021046FFF788FD40210D
:1055A000C2F82C021046FFF782FD92F85832C2F87A
:1055B000300203F0010182F8F311C3F34001C3F399
:1055C000800382F8F53192F85E3282F8F41103F02C
:1055D000010182F8FD11C3F3400182F8FE11C3F30B
:1055E000800182F8FF11C3F3C001C3F3001382F8F6
:1055F000001282F80132012382F8A63370E500BF61
:1056000012B903689B681847D2B202F074BA00005E
:10561000F8B590F8493204460D46002B7CD03F493E
:10562000D0F8440202F04BFA2B78012B39D13C49D7
:10563000D4F8440202F043FA3A49D4F8440202F0A2
:105640003EFA2B8840F20172934242D13649D4F897
:10565000440202F034FA3549D4F8440202F02FFA39
:105660006988D4F84402102202F045FA94F8806365
:10567000002E46D12E49D4F844022E4F02F01FFAD4
:105680006B88D4F84402B34240DD394602F017FA81
:10569000AB68D4F84402995D1022FFF7B1FF0136E0
:1056A000EEE7052BD4F8440201D12349C2E7062BCB
:1056B00001D12249BEE70A2B01D12149BAE721498C
:1056C00002F0FDF92978D4F844021022FFF798FF80
:1056D000B2E740F606029342D4F8440201D11A49D7
:1056E000B7E740F60612934201D11849B1E71549D0
:1056F00002F0E5F96978D4F844021022FFF780FF40
:10570000A9E71349D4F8440202F0D9F9D4F84402C5
:10571000BDE8F84002F0D7B9F8BD00BF779B0D0097
:105720007C9B0D008C9B0D00919B0D009F9B0D00A1
:10573000A89B0D0087A10D00809B0D00849B0D0090
:10574000889B0D00329C0D00959B0D009A9B0D00CF
:10575000B29B0D0038B50546FFF752FF04462846B8
:1057600002F0B1F9204438BD2DE9F843984690F88D
:1057700081339DF82060002B53881546928803F1F1
:1057800003030CBF4FF480794FF0020993420446A3
:105790000F4601DBFFF77FFCAA8812B92F700026A5
:1057A0006CE0012A01D16F70F9E7022A01D16F8004
:1057B000F5E7032A698803D141EA07216980EEE70A
:1057C0000B1D9A4201D12F73E9E705318A4240F05F
:1057D000558100226F7384F83422B4F89633A98976
:1057E00099422B7840F0DF8001224345AA7363D1B0
:1057F0006A78B24260D10123EB7394F84932ABB3BB
:10580000AC49D4F8440202F05AF90A226988D4F863
:10581000440202F070F9A849D4F8440202F04FF9AA
:1058200029462046FFF7F4FEAB7B012B04D1A349A8
:10583000D4F8440202F05DF994F85E33012B04D1F0
:105840009F49D4F8440202F054F9EB7B012B04D1B8
:105850009C49D4F8440202F04CF994F85F33012BD0
:1058600004D19949D4F8440202F043F994F88063D2
:10587000002E94D129462046FFF72AFCAB8801333D
:105880009BB2AB801EB9B3F5807F40F0118100233D
:1058900084F8343294F8493223B994F84A32002B10
:1058A00000F00681D4F84402002E00F0FF80874902
:1058B000BDE8F84302F01DB92A8840F205118A427A
:1058C00026D1AA681178414502D15278B24292D0CD
:1058D000434592D16B7894F84922072B40D106F0CA
:1058E000EF03042B89D1002AC0D07949D4F84402AF
:1058F00002F0E5F810223146D4F84402FFF780FEAA
:105900007449D4F8440202F0DAF86978102222E0EF
:10591000052ADDD1AA6811784145D9D15278B24221
:10592000D6D10323EB7394F84932002B9ED06A49F9
:10593000D4F8440202F0C3F8AB68D4F844021978F2
:105940001022FFF75DFE6549D4F8440202F0B7F873
:10595000AB6859781022D4F84402FFF7FBFE4CE7FD
:10596000142B03D1072EBED0042EBBE7042B03D18A
:10597000072EB8D0142EB5E7012B08D116F0FD0F75
:105980007FF43BAF002A3FF471AF5549AEE7022BDD
:1059900003D1012E3FF631AFF4E7002B7FF42DAF9A
:1059A000731E012BF6E74345AA735DD16A78B242B4
:1059B0005AD10023EB7394F8493223B994F84A3250
:1059C000002B3FF4ECAE4749D4F8440202F077F8DC
:1059D0004549D4F8440202F072F8297BD4F8440215
:1059E0000A22FFF70DFE4149D4F8440202F067F89D
:1059F000697BD4F844020A22FFF702FE3C49D4F83E
:105A0000440202F05CF894F89613D4F844020A2297
:105A1000FFF7F6FD3749D4F8440202F050F80A22A5
:105A200094F89713D4F84402FFF7EAFDD4F844023F
:105A300002F049F83049D4F8440202F040F82F4906
:105A4000D4F8440202F03BF86988D4F844020A22F0
:105A500002F051F81849D4F8440202F030F829460F
:105A60002046FFF7D5FD9AE6052BA4D1AB681A783E
:105A70004245A0D15B78B3429DD19AE7EB88288854
:105A800094F8806340F20171884208BF0023002E21
:105A90007FF485AED11E99427FF781AE043AD21AC7
:105AA0004A45B6BFAB6801269F54E7E61449FFE6B6
:105AB000BDE8F883829C0D00939C0D009F9C0D0017
:105AC000B39C0D00C79C0D00E19C0D00599D0D007D
:105AD000F39B0D00359C0D00C49B0D00239C0D0015
:105AE000459C0D00FB9C0D000C9D0D00199D0D00AB
:105AF000269D0D003A9D0D004E9D0D008C9C0D00C5
:105B00007D9D0D002DE9F743984690F834329DF8BD
:105B10002860012B04460D4617460DD8B5292DD116
:105B20000023A0F894330222A0F874334FF40073DA
:105B300080F83422A0F8803394F83432022B40F0FD
:105B40005F81B4F8942332BBB52D02D0002384F8D2
:105B5000343294F881330096012B40F0498143465A
:105B600004F5547229462046FFF7FEFDB4F894333D
:105B70000133A4F8943303B0BDE8F083242903D1A2
:105B8000012384F83432D7E7D329D5D10023A0F8F4
:105B9000F4300323F5E7012A01D1622DD5E7022A6B
:105BA0000CD1002384F87053A4F89633A4F874330E
:105BB00084F87E23FB88A4F87633CAE7032A70D1E1
:105BC00094F8703384F87153052BC2D098454AD1AC
:105BD000B5420BD1002384F8813387F8008094F814
:105BE00071337B70B4F87433BB80B2E7072D29D1D1
:105BF00006F0EF02042A36D1002284F881233B709C
:105C000094F871337B70B4F87433BB8094F84932E4
:105C1000002B9ED08349D4F8440201F050FF10229B
:105C20003146D4F84402FFF7EBFC7F49D4F8440234
:105C300001F045FF94F87113D4F844021022FFF7E5
:105C400089FD86E7142D03D1072ED5D0042ED2E787
:105C5000042D03D1072ECFD0142ECCE7012D06D171
:105C600016F0FD0F07D0012384F8803371E7022D71
:105C700012D1012EF7D8002284F881233B7094F8CA
:105C800071337B70B4F87433BB8094F84932002BC5
:105C90003FF45FAF6549BEE7002DE4D1721E012AD3
:105CA000E8E7042A02D1A4F8725352E7052A06D184
:105CB000B4F8723343EA0523A4F8723349E7062A9D
:105CC00024D1B4F87233EBB994F84932BBB15849D6
:105CD000D4F8440201F0F3FE102294F87013D4F8C3
:105CE0004402FFF78DFC5349D4F8440201F0E7FE6B
:105CF00094F87113D4F844021022FFF72BFD84F8B6
:105D00007C5326E7D4F878331D7022E7072A7FF406
:105D100020AFB4F872339BBB84F87D5394F8813381
:105D2000022B7FF416AF94F8701305297FF411AF9E
:105D3000D4F878331A7842457FF40BAF5A78B242E0
:105D40007FF407AFB4F87223022A21D184F85013EC
:105D5000A4F8522394F87113B4F87423A4F85423CC
:105D6000012084F8810384F85113D4F858231B7858
:105D70001370D4F87823D4F8583352785A70E8E680
:105D8000012B16BFD4F8783384F87C535D70C5E7D7
:105D900094F84932002B3FF4DCAE2749D4F8440292
:105DA00001F08DFED4F87833D4F84402197810222B
:105DB000FFF726FC1F49D4F8440201F080FED4F816
:105DC0007833D4F8440259781022FFF719FC1B49A4
:105DD000D4F8440201F073FED4F84492B4F872137C
:105DE0000A22484601F087FE484601F06CFEB0E604
:105DF00013B943463A46B5E6434604F55C72B1E64C
:105E0000012B04D129462046FFF720F8B3E6032BE7
:105E10007FF4B1AE2946204603B0BDE8F043FFF75A
:105E20001DB800BFA69D0D00359C0D00E59D0D0021
:105E30001F9E0D002D9C0D004F9E0D007F9E0D009E
:105E40002DE9F04F044685B099460F46904600F084
:105E5000E7FFD4F88433C01A94F882339842C0F034
:105E6000DC8094F84812D4F8380202F043FCFD219B
:105E7000D4F83802FEF7A4FFD4F83802002102F06B
:105E800058FC18B1002005B0BDE8F08F94F8481216
:105E9000D4F83802022202F02AFCD4F8380203684F
:105EA0001B69984720B994F84932D3B15C4914E092
:105EB000D4F8380203685B6998470546D4F838027D
:105EC00003685B699847C6B2FF2E94F849320DD13A
:105ED00013B994F84A3223B15249D4F8440201F07C
:105EE00008FE00F09DFFC4F88403CBE746EA0520D6
:105EF00085B202B2002DD6D0002A14DAC5F30E0501
:105F000013B994F84A3273B14749D4F8440201F006
:105F1000D6FDD4F844620A222946304601F0EBFD52
:105F2000304601F0D0FD642D94F8493259D97BB147
:105F30003E49D4F8440201F0C2FD2946D4F8440297
:105F40000A2201F0D8FD3A49D4F8440201F0D1FD0B
:105F5000DFF8E8A0002D60D094F84812D4F8380299
:105F600002F0C8FBFF21D4F83802FEF729FFD4F86D
:105F70003802002102F0DDFB002883D12678AE42F2
:105F800028BF2E4694F84812D4F83802324602F060
:105F9000AEFBD4F8380203681B69984700283FF429
:105FA00071AF4FF0000B1FFA8BF3B342039331D262
:105FB000D4F83802026852699047039BC1B2FBB91A
:105FC0007F291DD194F8493213B994F84A3223B18C
:105FD000D4F84402514601F08CFD052001F0BCFDCF
:105FE000D0E7002BB4D01349D4F8440201F067FD88
:105FF0002946D4F844020A2201F07DFD0E49A3E7A8
:10600000CDF8009043463A462046FFF77BFD0BF162
:10601000010BC8E7AD1BADB29CE7012033E700BF21
:10602000B49E0D00869E0D00DC9E0D00029F0D00AB
:10603000229F0D00329F0D004A9F0D00519F0D00C1
:10604000F7B504460D4616461F46D4F83C020368D1
:106050001B69984760B1D4F83C0203685B699847B4
:106060000097C1B233462A462046FFF74BFDECE7C6
:10607000012003B0F0BD10B490F836421CB95DF8B1
:10608000044BFFF7DDBE012C03D15DF8044BFFF795
:10609000D7BF00205DF8044B704710B42AB90268DE
:1060A0005DF8044B9268C9B210475DF8044BD2B258
:1060B00001F021BD2DE9F74F984602238B7380F83C
:1060C0005E3380F87E33CB7380F85F3380F87F33A4
:1060D000BDF83090DFF8B4A2DFF8B4B204460D4644
:1060E000174600F09DFE064600F09AFE801B4845CC
:1060F00080F0AC8043463A4629462046FFF7BBFF76
:10610000002800F09E80EA7B94F85F33012A26D1B4
:10611000012B40F00C81A97B012929783CD1B9429F
:106120003FD16878404537D194F849321BB90B20EC
:1061300003B0BDE8F08F8949D4F8440201F0BFFCF8
:10614000D4F8445200F06CFE0A22811B2846FFF767
:10615000A4FF8349D4F8440201F0CBFCE7E7022A0C
:1061600037D1012B40F0C98094F8493293B17D4971
:10617000D4F8440201F0A3FCD4F8445200F050FEDD
:106180000A22811B2846FFF788FF7549D4F844028C
:1061900001F0AFFC0A20CBE7B94202D16978414552
:1061A0001AD094F8493293B16F49D4F8440201F0FF
:1061B00086FCD4F8445200F033FE0A22811B2846A4
:1061C000FFF76BFF6649D4F8440201F092FC0D2002
:1061D000AEE7012B40F09180E989002971D194F854
:1061E000493293B16149D4F8440201F068FCD4F813
:1061F000445200F015FE0A22811B2846FFF74DFF8E
:106200005749D4F8440201F074FC022090E7022BB5
:1062100017D194F84932A3B15146D4F8440201F0A1
:106220004EFCD4F84432019300F0FAFD019B811B2F
:106230000A221846FFF731FFD4F84402594601F00C
:1062400058FC4FF4FA7000F0E3FD4DE7EA7B94F858
:106250004932012A1FD194F85F23022A1BD1AA7B5D
:10626000012A18D12A78BA4215D16A78424512D14A
:10627000002B3FF45CAF3E49D4F8440201F01FFC10
:10628000D4F8445200F0CCFD0A22811B2846FFF7C7
:1062900004FF38495EE793B13749D4F8440201F06E
:1062A0000EFCD4F8445200F0BBFD0A22811B2846A4
:1062B000FFF7F3FE3149D4F8440201F01AFC032041
:1062C00036E7012ABDD01343BBD194F8493293B1CC
:1062D0002B49D4F8440201F0F2FBD4F8445200F008
:1062E0009FFD0A22811B2846FFF7D7FE1C49D4F8E0
:1062F000440201F0FEFB01201AE7032BE3D194F8DE
:10630000493293B11F49D4F8440201F0D8FBD4F8C4
:10631000445200F085FD0A22811B2846FFF7BDFE8E
:106320000F49D4F8440201F0E4FB042000E7032BFA
:10633000E5D0002B7FF46BAFAB7B012B81D12B78A9
:10634000BB427FF47EAF6B7843457FF47AAF94F81D
:106350004932002B3FF4EBAE0B49EDE6899F0D006F
:10636000C69F0D00CC9F0D00FD9F0D002FA00D00BE
:106370004EA10D0081A10D0089A10D00ACA10D0061
:10638000CFA00D0055A00D0090A00D0010A10D0094
:1063900036A10D002DE9F84F0D460221A97380F8B2
:1063A0005E1380F87E13E97380F85F1380F87F1323
:1063B000BDF8289004461746984600F031FD40F29B
:1063C000011A064640F2012B00F02AFD801B4845C9
:1063D0006AD243463A4629462046FFF74CFE00283B
:1063E0005DD0EA8952451ED12B78BB421BD16B7818
:1063F000434518D194F8493293B13749D4F844024F
:1064000001F05DFBD4F8445200F00AFD0A22811B22
:106410002846FFF742FE3149D4F8440201F069FBF7
:106420000B20BDE8F88FEB7B012B1DD12B78BB42F5
:1064300002D16B78434532D094F8493293B1284960
:10644000D4F8440201F03BFBD4F8445200F0E8FCDD
:106450000A22811B2846FFF720FE2049D4F8440277
:1064600001F047FB0D20DCE75A4518D0BBB994F882
:10647000493293B11B49D4F8440201F020FBD4F80F
:10648000445200F0CDFC0A22811B2846FFF705FE8E
:106490001249D4F8440201F02CFB0220C1E74FF46A
:1064A000FA7000F0B5FC8FE794F8493293B10E49C9
:1064B000D4F8440201F003FBD4F8445200F0B0FCDD
:1064C0000A22811B2846FFF7E8FD0849D4F8440258
:1064D00001F00FFB0320A4E7B3A10D00C69F0D0040
:1064E000EDA10D0021A20D005AA20D007FA20D000A
:1064F000F7B504460D461746FEF7ABFD94F8493252
:1065000043B12449D4F8440201F0D9FA294620467F
:10651000FFF77EF894F836328BB93A462946204682
:10652000FEF7BEFC064680B194F8493223B11A4901
:10653000D4F8440201F0DDFA304603B0F0BD012B7F
:1065400003D129462046FEF745FD0FB32A7894F87B
:106550004932062A0ED123B11049D4F8440201F081
:10656000C8FA6B782A78009729462046FFF7A2FDE3
:106570000646E1E723B10A49D4F8440201F0B9FA2A
:106580006B782A78009729462046FFF703FFEFE74C
:106590003E46D1E79AA20D00A5A20D00BDA20D00B6
:1065A000E3A20D0037B590F8364205460A467CB1A5
:1065B00040F60603C5F860330023A5F8663305F5F9
:1065C00058712846FFF794FF0B2811D1012013E0E2
:1065D000019190F84812D0F8380202F08BF8D5F803
:1065E000380202F0AAF8019A0028E1D0204603E020
:1065F000A0F10D035842584103B030BD002310B53F
:10660000C0F8381280F8363280F8482240F24C4107
:106610000446FFF7C7FF60B940F24C412046FFF740
:10662000C1FF30B9204640F24C41BDE81040FFF7B1
:10663000B9BF012010BD0000104B10B5C0F8603389
:1066400000230A46A0F866331C46D0F86813CC54E1
:106650000133B0F86213DBB28B42F6DBD0F868137B
:10666000FF230B71D0F868134B7100F55871FFF7D9
:106670003FFFA0F10A035842584110BD06090C0023
:1066800010B5084CC0F860430024A0F8664380F8B9
:106690004D1200F55871FFF72BFFA0F10B03584284
:1066A000584110BD0600010037B515461A4604468C
:1066B0000193FFF7E5FF88B1094BC4F8603300236D
:1066C000A4F86633019A84F85B5204F558712046A9
:1066D000FFF70EFFA0F10A035842584103B030BD46
:1066E0000600140013460A460021FFF7DDBF000034
:1066F000F7B590F8885390F8493204460A46FDB140
:1067000090F889539DB123B12E49D0F8440201F08D
:10671000F0F90723012204F558712046FFF7ABFC7E
:1067200094F89953C5F38005284603B0F0BD0BB922
:106730000025F9E72449D4F8440201F0DAF9F3E737
:1067400033B10191D0F84402204901F0D2F9019A05
:1067500040F20173C4F8603304F558712046FFF726
:10676000C7FE0B28064628D00D2894F8497211D18F
:1067700094F86033012B07D10FB31549D4F84402C4
:1067800001F0B7F93D46CFE7282B03D1002FCFD03A
:106790001049D0E7002FCBD00F49D4F8440201F0C4
:1067A0008EF90D2E98BF0D4BD4F8440294BF53F8C8
:1067B00026100B4901F093F9B6E70125B4E71D4611
:1067C000B2E700BF0CA30D0022A30D003BA30D00F8
:1067D0004BA30D008FA30D00D1A30D00B4A40D0099
:1067E000689B0D0010B590F99933002B044601DB2E
:1067F000FFF77EFF94F89933D4F8880003F07B0309
:1068000084F8993310BD10B590F899335B060446AF
:1068100001D4FFF76DFF94F89933D4F88C0023F07E
:10682000440384F8993310BD10B590F89B33DB070F
:10683000044601D4FFF75CFFD4F8983394F8AD0018
:1068400023F0807323F48063C4F8983310BD10B52F
:1068500090F89B335B07044601D4FFF749FFD4F857
:106860009833D4F8B00023F00423C4F8983310BD53
:1068700001757047F8B507460C4615461E4602F0EE
:10688000C5F8397D01F036FF02F0C0F82146FEF769
:1068900097FA0024A64207DD02F0B8F80368295DE4
:1068A0009B6898470134F5E702F0B0F8BDE8F8407E
:1068B00001F043BF07B501238DF807200DF1070252
:1068C000FFF7D8FF03B05DF804FB38B504460D466A
:1068D00002F09CF8217D01F00DFF02F097F82946A7
:1068E000FEF76EFA02F092F8002101F022FF08B1E3
:1068F000002038BD02F08AF8217D012201F0F7FE68
:106900000128F5D102F082F803685B699847C0B2AC
:10691000EFE708B50021FFF7D8FFC0F3C00008BDBE
:1069200038B50D460E210446FFF7CFFF20F00302D5
:1069300042EA95022046D2B2BDE838400E21FFF768
:10694000B9BF38B50D462A210446FFF7BEFF20F037
:10695000300242EAC5022046D2B2BDE838402A21C0
:10696000FFF7A8BF08B52221FFF7AFFF03064CBF12
:1069700000F07F00002008BD10B511210446FFF78C
:10698000A4FF40F04000C2B211212046FFF792FF61
:1069900020465022BDE810401221FFF78BBF10B5F2
:1069A0002A210446FFF791FF2A2100F0FE0220462B
:1069B000BDE81040FFF77EBF10B52A210446FFF75F
:1069C00084FF40F00100C2B22A212046BDE81040F9
:1069D000FFF770BF38B541751546044602F016F84A
:1069E00001F056FE0D212046FFF76FFF2A2812D135
:1069F0002046FFF7D4FF617D2046FFF791FF29462F
:106A00002046FFF79EFF2046FFF7B6FF2046FFF720
:106A1000D3FF012038BD0020FCE700002DE9F04144
:106A200004460E4604300A49DFF8248000F0E5FEF3
:106A300004F1180504F5D47728464146143500F0D2
:106A4000DCFEAF42F8D126702046BDE8F08100BFE1
:106A500088A10D0010B504460846C4F8A811217895
:106A600001F048FED4F8A80101F067FEB0FA80F00A
:106A7000400910BD70B58AB00446019102A857497B
:106A800000F0BBFE019A2178D4F8A80101F02FFE96
:106A9000D4F8A80103685B6998470A22014606A852
:106AA00000F010FF06A902A800F0F2FE06A800F010
:106AB00059FED4F8A80103685B6998470A22014689
:106AC00006A800F0FFFE06A902A800F039FF06A8FC
:106AD00000F048FED4F8A80103685B6998470A22D1
:106AE000014606A800F0EEFE06A902A800F028FF65
:106AF00006A800F037FED4F8A80103685B69984740
:106B00000A22014606A800F0DDFE06A902A800F050
:106B100017FF06A800F026FED4F8A80103685B69F9
:106B200098470A22014606A800F0CCFE06A902A852
:106B300000F006FF06A800F015FED4F8A8010368CF
:106B40005B6998470A22014606A800F0BBFE06A929
:106B500002A800F0F5FE251D06A800F003FE02A91C
:106B6000284600F07BFE1E49284600F0FEFED4F8C1
:106B7000A8311A685269B8B118469047D4F8A801EC
:106B800003685B699847D4F8A80103685B69984774
:106B9000D4F8A80103685B6998470025656102A8DD
:106BA00000F0E0FD0AB070BD184690470506D4F825
:106BB000A80103685B69984745EA0045D4F8A80135
:106BC00003685B6998470646D4F8A80103685B69C7
:106BD0009847054345EA0625E0E700BF88A10D0078
:106BE000299A0D0038B50C4605460A212046043482
:106BF000FFF740FF2146284600F03FFE02492046AD
:106C000000F04EFE284638BD88A10D002DE9F04366
:106C100089B004460F4668465D49DFF8788100F088
:106C2000ECFD1421264611FB0747B74200F0A9806E
:106C30002178D4F8A8010A2201F059FDD4F8A8015E
:106C400003685B6998470A22014604A800F03AFEEF
:106C500004A9684600F01CFE04A800F083FDD4F8E7
:106C6000A80103685B6998470A22014604A800F05E
:106C700029FE04A9684600F063FE04A800F072FD36
:106C8000D4F8A80103685B6998470A22014604A862
:106C900000F018FE04A9684600F052FE04A800F0B7
:106CA00061FDD4F8A80103685B6998470A22014690
:106CB00004A800F007FE04A9684600F041FE04A8FD
:106CC00000F050FDD4F8A80103685B6998470A22D8
:106CD000014604A800F0F6FD04A9684600F030FE65
:106CE00004A800F03FFDD4F8A80103685B69984749
:106CF0000A22014604A800F0E5FD04A9684600F058
:106D00001FFE06F1180504A800F02CFD6946284670
:106D100000F0A4FD4146284600F027FED4F8A83133
:106D20001A685269A0B118469047D4F8A8010368C0
:106D30005B699847D4F8A80103685B699847D4F861
:106D4000A80103685B6998470025B56214366CE7B3
:106D5000184690470506D4F8A80103685B69984770
:106D600045EA0045D4F8A80103685B699847814665
:106D7000D4F8A80103685B699847054345EA0925EB
:106D8000E3E7684600F0EEFC09B0BDE8F08300BF21
:106D900088A10D00299A0D001421FFF737BF0000CC
:106DA00008B5024B1B689B68019308BD680203008D
:106DB00008B5024B1B68DB68019308BD680203003D
:106DC00008B5024B1B689B68019308BD2C020300A9
:106DD00008B5024B1B68DB68019308BD2C02030059
:106DE00008B5024B1B681B69019308BD2C02030008
:106DF00008B5024B1B685B69019308BD2C020300B8
:106E000008B5024B1B685B68019308BD18020300BC
:106E100008B5024B1B68DB68019308BD180203002C
:106E200008B5024B1B685B69019308BD180203009B
:106E300008B5024B1B685B6C019308BD4802030058
:106E400008B5024B1B689B6C019308BD4802030008
:106E500008B5024B1B685B69019308BD640203001F
:106E600008B5024B1B681B68019308BD3C02030078
:106E700008B5024B1B68DB68019308BD3C020300A8
:106E800008B5024B1B681B69019308BD3C02030057
:106E900008B5024B1B685B69019308BD3C02030007
:106EA00008B5024B1B689B69019308BD3C020300B7
:106EB00008B5024B1B68DB69019308BD3C02030067
:106EC00008B5024B1B681B6A019308BD3C02030016
:106ED00008B5024B1B689B6A019308BD3C02030086
:106EE00008B5024B1B68DB68019308BD280203004C
:106EF00008B5024B1B689B69019308BD280203007B
:106F000008B5024B1B68DB69019308BD280203002A
:106F100008B5024B1B681B6A019308BD28020300D9
:106F200008B5024B1B685B6A019308BD2802030089
:106F300008B5024B1B689B6A019308BD2802030039
:106F400008B5024B1B68DB6A019308BD28020300E9
:106F500008B5024B1B681B6B019308BD2802030098
:106F600008B5024B1B685B6B019308BD2802030048
:106F700008B5024B1B681B6C019308BD2802030077
:106F800008B5024B1B689B6C019308BD28020300E7
:106F900008B5024B1B68DB6C019308BD2802030097
:106FA00008B5024B1B681B6D019308BD2802030046
:106FB00008B5024B1B68DB69019308BD3002030072
:106FC00008B5024B1B681B6A019308BD3002030021
:106FD00008B5024B1B681B68019308BD4C020300F7
:106FE00008B5024B1B685B68019308BD4C020300A7
:106FF00008B5024B1B681B69019308BD4C020300D6
:1070000008B5024B1B685B69019308BD4C02030085
:1070100008B5024B1B689B69019308BD4C02030035
:1070200008B5024B1B68DB69019308BD4C020300E5
:1070300008B5024B1B681B6A019308BD4C02030094
:1070400008B5024B1B681B6D019308BD600203006D
:1070500008B5024B1B685B68019308BD2002030062
:1070600008B5024B1B685B69019308BD2002030051
:1070700008B5024B1B68DB6A019308BD20020300C0
:1070800008B5024B1B68DB6C019308BD20020300AE
:1070900008B5024B1B685B6D019308BD200203001D
:1070A00008B5034B1B68D3F88830019308BD000076
:1070B0002002030008B5034B1B68D3F894300193FA
:1070C00008BD00002002030008B5034B1B68D3F87D
:1070D000AC30019308BD00002002030008B5024B4C
:1070E0001B685B68019308BD4002030008B5024BB2
:1070F0001B689B68019308BD4002030008B5024B62
:107100001B68DB68019308BD4002030008B5024B11
:107110001B681B69019308BD4002030008B5024BC0
:107120001B685B69019308BD4002030008B5024B70
:107130001B689B69019308BD4002030008B5024B20
:107140001B68DB69019308BD4002030008B5024BD0
:107150001B681B6A019308BD4002030008B5024B7F
:107160001B681B6B019308BD4002030008B5024B6E
:107170001B685B6B019308BD4002030008B5024B1E
:107180001B681B68019308BD4402030008B5024B4D
:107190001B685B68019308BD4402030008B5024BFD
:1071A0001B685B69019308BD4402030008B5024BEC
:1071B0001B681B6A019308BD4402030008B5024B1B
:1071C0001B68DB6B019308BD4402030008B5024B4A
:1071D0001B681B68019308BD1C02030008B5024B25
:1071E0001B685B68019308BD1C02030008B5024BD5
:1071F0001B689B68019308BD1C02030008B5024B85
:107200001B685B6A019308BD1C02030008B5024BB2
:107210001B68DB6A019308BD1C02030008B5024B22
:107220001B681B6B019308BD1C02030008B5024BD1
:107230001B685B6C019308BD1C02030008B501F0DC
:107240000DFCBDE8084001F07BBA10B504460170A2
:1072500009B1FFF7F3FF204610BD08B501F0FEFBB2
:10726000BDE8084001F075BA10B5037804460BB1CB
:10727000FFF7F3FF204610BD10B504460068FFF786
:10728000ECFF204610BD30B587B00D460190FFF7EA
:10729000D5FF6B238DF808300023012403930A23C4
:1072A00005938DF8104001F0D9FB02A901F029FAED
:1072B00001F0D4FB036829469B68984701F0CEFB98
:1072C000214601F036FA039401F0C8FB02A901F04F
:1072D000E5F901F0C3FB03685B699847044601A820
:1072E000FFF7CAFFE0B207B030BD0521FFF7CBBF03
:1072F00070B586B014460D460190FFF79FFF6B23D3
:107300008DF808300023039301260A2305938DF896
:10731000106001F0A3FB02A901F0F3F901F09EFB5C
:10732000036829469B68984701F098FB036821464B
:107330009B68984701F092FB314601F0FAF901A8E9
:10734000FFF79AFF06B070BD13B504460190FFF732
:1073500075FF01212046FFF796FF00F0CF0040F0B7
:10736000100201212046FFF7C3FF01A8FFF784FFA9
:10737000012002B010BD13B504460190FFF75EFF77
:1073800001212046FFF77FFF012100F0CF022046B8
:10739000FFF7AEFF01A8FFF76FFF012002B010BD9D
:1073A00013B504460190FFF749FF07212046FFF778
:1073B0006AFF072100F0DF022046FFF799FF01A8CE
:1073C000FFF75AFF012002B010BD13B5044601902B
:1073D000FFF734FF07212046FFF755FF40F020005C
:1073E000C2B207212046FFF783FF01A8FFF744FF41
:1073F000012002B010BD002240681146FFF7A6BE72
:10740000002240681146FFF7B1BE40680022FFF736
:10741000A5BE4068002281F00101FFF78FBE002366
:1074200040681A461946FFF781BE002340681A4695
:107430001946FFF773BE002240681146FFF766BE8B
:10744000002240681146FFF751BE40680022022129
:10745000FFF754BE002340681A46FFF73FBE000006
:10746000024B03225A60024A1A60704704E6032066
:10747000F4A40D0010B5044608462170FFF798FDEE
:1074800000236360204610BD10B50446006818B1A3
:10749000FFF7A4FE0023236010BD10B50446FFF7DC
:1074A000F3FF204610BD38B5B1F9043083800B4698
:1074B0000D4653F8062FC0F806209B8843810446EA
:1074C000FFF7E2FF2B6813B1236000232B602046F7
:1074D00038BD000038B50C460546FFF7D5FF44B16E
:1074E0002088FFF773FE286028B12288214602F029
:1074F00009F9002038BD0148FCE700BFFCFEFFFF92
:10750000F0B52D4D0B7D04468BB00846AF1D002B0A
:1075100038D00B681B79002B34D00022274B049302
:1075200002A904300292ADF80C208DF80E20FFF76E
:10753000CBFDDDF80E30C5F8063000B2BDF81230D4
:10754000ADF80C00A8800299BB802846FFF7C2FF67
:1075500002A8FFF799FF00232360A380A371238172
:107560004FF6FF736381B5F90430A3803B68C4F81C
:107570000630BB88296863812046FFF7ABFF2046B1
:107580000BB0F0BD00262023CDE902360C4B009352
:107590000C49334602AA3220FFF752FD074B0493F1
:1075A00002A94FF6F263044802968DF80E60ADF81A
:1075B0000C30FFF778FFCBE70CE603200000FFFF5D
:1075C00027A50D0020A50D0010B5094B094C02227E
:1075D00000201A60084B2060A080A071A360FFF714
:1075E00037FD2046054A0649BDE8104001F05EBA65
:1075F00018E603200CE603200000FFFF28E003202C
:107600009B740D0010B5044602F0E5F8013823180C
:107610002046834206D90278197800F8011B03F846
:107620000129F6E710BD70B50C46911E22290546CA
:1076300022D820466DB1B5FBF2F602FB1655E9B231
:10764000092D94BF30315731C9B200F8011B3546BE
:10765000F0E7024623443021934202D902F8011B8D
:10766000FAE71A1A834238BF0022002383542046C7
:10767000FFF7C8FF204670BD0020FCE738B5031EA9
:107680000C4615460EDAB3F1004F4FF02D0214BF31
:107690005842184601230A702A461944FFF7C3FFCF
:1076A000204638BD0123F9E72DE9F04757EC106B70
:1076B00080460C4610EE100A00220023394601F0E5
:1076C00031FE28B107F100431F462D2304F8013B8A
:1076D00000234FF001090A22D9B2884503D902FBE1
:1076E00009F90133F8E7484601F040FB32463B46D2
:1076F00001F0A6FB06460F4601F074FE05468A46D9
:1077000001F068FB02460B463046394601F0E0F9CD
:10771000134B002201F01AFE10B101354AF1000AA4
:107720004A462846D317514601F044FE0123154628
:1077300021460A22FFF777FFB8F1000F0DD020464F
:1077400002F049F82E23211823540A2243462846E2
:107750000131BDE8F047FFF766BFBDE8F08700BF25
:107760000000E03F10B504460068FFF737FD2046F3
:1077700010BD10B50446006808B1FFF72FFD0023C7
:10778000C4E90133236010BD38B504460D460068D6
:107790000131FFF72BFD10B1C4E90005012038BD10
:1077A00010B50368044623B143688B4201D301201E
:1077B00010BD2046FFF7E8FF0028F9D0A368002B92
:1077C000F5D122681370F2E737B50D4611460192E4
:1077D0000446FFF7E5FF019A28B92046FFF7C9FFE5
:1077E000204603B030BDA2602946206801F08AFF20
:1077F0002268A3680021D154F2E7002313B5C0E941
:10780000003304468360037341B10846019101F0DF
:10781000E2FF019902462046FFF7D6FF204602B05C
:1078200010BD38B5054600680C4668B16A688B68BB
:107830009A4207D3096801F0A9FFA368AB6000234F
:10784000A36038BDFFF7CAFC23682B6063686B60D8
:10785000A368AB600023C4E90033F1E7884210B5A8
:10786000044605D00B682BB18A681946FFF7ACFFB8
:10787000204610BDFFF77DFFFAE710B50023044650
:10788000C0E9003383600373FFF7E8FF204610BDB3
:10789000884210B5044601D0FFF7C3FF204610BD53
:1078A00013B5044659B10846019101F094FF0199BE
:1078B00002462046FFF788FF204602B010BDFFF7C2
:1078C00058FFF9E710B504468AB00023C4E9003335
:1078D000A3602373084601A9FFF7D0FE01A9204643
:1078E000FFF7DEFF20460AB010BD10B504468AB08F
:1078F00000230846C4E90033A360237301A9C0B282
:10790000FFF7D2FE01A92046FFF7CAFF20460AB0C2
:1079100010BD70B505460E4609B9002070BD6AB1AC
:10792000846814442146FFF73BFF0028F5D02868FF
:10793000AB683146184401F029FFAC600120EDE747
:107940008A680968FFF7E5BF13B50446084651B1D8
:10795000019101F040FF01990246204602B0BDE8C6
:107960001040FFF7D6BF02B010BD08B582683AB923
:1079700021B10878B0FA80F0400900E0012008BD8C
:10798000006809B90078F5E701F0F6FEF2E70000BB
:107990000EB470B587B00BAD044655F8042B0192B8
:1079A0002B46052104A80395FFF728FC0B49064642
:1079B0002046FFF722FF31462046FFF7F1FE206800
:1079C00030B1019A03952B46711CFFF717FCA0609C
:1079D000204607B0BDE8704003B0704788A10D0095
:1079E00010B5036804469B689847A368013BA360F1
:1079F0002BB923682046DB68BDE81040184710BD4E
:107A000010B50446006808B1FFF71AFA204610BD09
:107A10000B68036013B15A6801325A60704710B5A1
:107A20000446006828B14368013B43600BB9FFF787
:107A3000D7FF204610BD000010B5064C002320469D
:107A40002360FFF7F5F92046034A0449BDE81040DA
:107A500001F02CB81CE6032028E00320017A0D0079
:107A6000F8B506460D468F180024BD420CD0336889
:107A700015F8011B9B6830469847031E01DB1C4428
:107A8000F3E7002C08BF1C462046F8BD13B504469A
:107A9000084659B1019101F09EFE23680199DB6807
:107AA0000246204602B0BDE81040184702B010BDA3
:107AB00008B5FFF7EBFF08BD03689B68184708B5DA
:107AC000FFF7E4FF08BD38B50D210546FFF7F4FFC9
:107AD0000A2104462846FFF7EFFF204438BD38B599
:107AE0000546FFF7D3FF04462846FFF7ECFF204486
:107AF00038BDFFF7F4BF30B58BB000238DF82430CC
:107B0000012A98BF0A2209AC0D46B1FBF2F101FB34
:107B1000125303F0FF03092B94BF30333733DBB22A
:107B2000AA4204F8013DEFD92146FFF7AFFF0BB0A1
:107B300030BD0000014B024A1A60704720E6032066
:107B40004EA50D00024B1A68024B1A60704700BF29
:107B5000C0DF032024E603200021FFF781BA10B51F
:107B60008368044613B1032201469847204610BD9E
:107B700010B50446FFF7F3FF204610BD13B50B46C2
:107B80000246D0E900016C4684E8030093E8030054
:107B900082E8030094E8030083E8030002B010BD0C
:107BA0000348044A04490023836000F07FBF00BFFC
:107BB00028E6032028E00320717B0D00014B1860AC
:107BC000704700BFC4DF032008B50B4B43B100F082
:107BD00019FC03681B699847002801DDAFF300809A
:107BE000064B43B100F0D8FC03681B699847002896
:107BF00001DDAFF3008008BD0000000000000000C0
:107C000008B5FFF7E1FFFFF70BF9014B186008BD5E
:107C1000BCE703200248034A0349121A01F072BD6F
:107C200000F4032004F40320C8A60D0007B50023C8
:107C300000931A466FF07701FFF73CFA03B05DF846
:107C400004FB000007B543880A2B08D0502B0BD14A
:107C5000094B1B684BB103B05DF804EB1847FFF705
:107C6000E5FF03B05DF804FB002300931A466FF0B4
:107C70007701FFF71FFAF4E73CE6032038B5124C12
:107C80001248134D0021FFF7D1FA2368AB42114B84
:107C90000CBF012200221A7002D0FFF7BBFF256043
:107CA000FFF7AEF8044601F043FD0B4B13B120463D
:107CB000AFF3008000210848FFF780FABDE83840A4
:107CC00006480021FFF7ECB900F40320BD7B0D004E
:107CD0001E1C279A38E6032000000000457C0D009A
:107CE00070470020704710B51021044600F0E3FEF5
:107CF000204610BD08B5FFF7F6FF08BD30B50022DD
:107D00004FF69C74026084808D888C800C6885801E
:107D100004600A6030BD10B504460068FFF75EFAE3
:107D2000204610BD38B5C468F4B12378022B03D1C6
:107D300004F10C00FFF7EFFF656835B12846FFF747
:107D40000EFF1021284600F0B6FEA56835B1284682
:107D5000FFF705FF1021284600F0ADFE2046142154
:107D6000BDE8384000F0A7BE38BD10B588B0044665
:107D70006846FFF742FD694604A8FFF77EFD04A8A8
:107D8000A047044604A8FFF7EDFC6846FFF7EAFCAD
:107D9000204608B010BD1FB50023CDE902010192B5
:107DA00010241A4669461846ADF80230ADF8004076
:107DB000FFF7ECF904B010BD73B50E46044656F853
:107DC000043B00930D4601A83146FFF721FE019ABE
:107DD000009B6260236001A8002301930093FFF7DA
:107DE0001EFE3046FFF71BFE2846082100F063FE0A
:107DF000204602B070BD826810B50AB900F061FE7D
:107E0000BDE81040C368184708B5006800F11001CC
:107E1000FFF7F1FF08BD826810B50AB900F051FE06
:107E2000BDE81040C368184708B5006800F11001AC
:107E3000FFF7F1FF08BD000038B5002304460360DA
:107E400010200D46FCF727F928B10123C0E90133C2
:107E5000024B0360C5602060204638BD78A50D0048
:107E600038B5002383608B6804460D462BB102228F
:107E70009847EB68E360AB68A360204638BD00001C
:107E8000F0B589B004686846FFF738FF4FF0020389
:107E9000D4E84F2F002A03D1C4E8413F0029F7D18D
:107EA00025D104F10C0569462846FFF727FFBFF3EB
:107EB0005B8F01236370002004F10803BFF35B8F25
:107EC00053E8006F43E80002002AF9D1BFF35B8F4B
:107ED0006EB1FFF7D5F878B129463046FFF78BFF32
:107EE0003046FFF73CFE1021304600F0E4FD6846C6
:107EF000FFF711FF09B0F0BD314602A8FFF7B0FF50
:107F0000E068B4F9105008B101F048FC0690102068
:107F1000ADF81C50FCF7BFF80546E8B100278760B4
:107F20001820FCF7B8F8044688B10146876002A81B
:107F3000FFF724FE049BA268A360059B049206A998
:107F4000E268E36004F110000592FFF7D7FE084BEA
:107F5000EB60084B2C60AB6006A8FFF7DCFE02A8C4
:107F6000FFF7FDFD002229460348FFF791F8B7E728
:107F7000097E0D00A1800D00ED850D002DE9F04773
:107F80008AB005469DF848900C4617469846FFF77C
:107F900005F907AE824638BB4FF62E73059005A94A
:107FA0003046ADF81830FFF7A9FE1420FCF773F83F
:107FB000044648B1022303700123C0E901AA4370BB
:107FC00031460C30FFF79AFE2846214640F8044B14
:107FD000FFF732FF3046FFF79EFE05A8FFF79BFE36
:107FE00028460AB0BDE8F0870C234FF0000A1420A1
:107FF000CDE908AA0793FCF74EF8014628B1C0E97D
:1080000001AA80F800A080F801A004A80391FFF75E
:1080100013FF224B08930820FCF73DF8824628B155
:10802000039B40F8043B04A9FFF7F2FC00965FFABB
:1080300089F3424639462046CDF824A0FFF7B6F82A
:10804000B8B9039B5B7803F0FF0293B94FF69C73BA
:1080500005A903A80592ADF81830FFF711FF05A890
:10806000FFF759FE05A80999FFF7A6FE06A8FFF736
:10807000D6FC039B059304A906A8FFF7C9FC059B42
:10808000069A2B606A60002306A806930593FFF703
:10809000C6FC04A8FFF7C3FCA2E700BF65810D0082
:1080A000022AF8B5054607D0032A18D0012A01D1C3
:1080B0000B6803600020F8BD18200E68FBF7EBFF8B
:1080C000044650B13146FFF7CBFE3069B6F9147063
:1080D00008B101F063FB2061A7822C60EAE7046825
:1080E000002CE7D004F11000FFF715FE2046FFF743
:1080F00036FD1821204600F0DEFCDBE738B5002312
:1081000083608B6804460D462BB102229847EB68CA
:10811000E360AB68A360204638BD022A70B5044610
:1081200007D0032A12D0012A01D10B680360002076
:1081300070BD14200E68FBF7AEFF054620B1314636
:10814000FFF7DCFF337C2B742560F0E70468002C1C
:10815000EDD02046FFF703FD1421204600F0ABFCD4
:10816000E5E70000F0B589B004460D4601A81146C8
:10817000FFF722FEA4B124B21DB1284601F00EFB88
:10818000054601A803A90395ADF81040FFF778FE56
:1081900003A8FFF7C0FD02A8FFF741FC09B0F0BD3E
:1081A000019D0123D5E84F2F002A03D1C5E8413FA7
:1081B0000029F7D1EFD12B73BFF35B8F6B702B1DB1
:1081C000BFF35B8F53E8006F43E80042002AF9D108
:1081D000BFF35B8F002EDED02046FEF751FF07462F
:1081E00060B105F10C013046FFF715FE3046FFF790
:1081F000B6FC1021304600F05EFCCCE7314603A807
:10820000FFF77CFF2B7B8DF81C301020FBF743FF22
:108210000546D0B187601420FBF73DFF044678B1D6
:108220008760014603A8FFF7A9FC059BA268A3602D
:10823000069B0592E268E3609DF81C300692237469
:10824000064BEB60064B2C60AB6003A8FFF787FC86
:10825000002229460348FEF71BFFC7E7297E0D00D1
:108260001B810D00ED850D00704710B518210446E7
:1082700000F021FC204610BDF0B5037D062B8DB02B
:108280000E4600F104074FF0000412D000F108057B
:1082900015F8011D0A223046FFF72DFCAF420444B9
:1082A00019D0002CF4D02E213046FFF705FC0444F1
:1082B000EEE72F236A4639460A208DF80040FEF784
:1082C000C7FD684601F087FA33680246DB686946F5
:1082D00030469847044620460DB0F0BD10B5054B1A
:1082E0000446112240F8043B002101F019FA20460F
:1082F00010BD00BF94A50D000346074A10B543F812
:10830000042B01F1100251F8044B43F8044B914245
:10831000F9D10A781A7010BD94A50D0010B59DF81A
:10832000084044EA032343EA024242EA016104238B
:108330004160037510BD13B5CB7800938B784A78F4
:108340000978FFF7EBFF02B010BD4174704770472A
:1083500008B50021007CFEF75BFE40EAE07008BD36
:1083600008B50121007CFEF753FE40EAE07008BD2D
:1083700008B5007CFEF744FE20EAE07008BD08B5B1
:10838000007CFEF735FE20EAE07008BD13B5044618
:10839000007C0191FEF734FE0028019901DC607C2D
:1083A00020B1207CFEF73CFE20EAE07002B010BD58
:1083B000007CFEF73DBE10B51421044600F07BFBA7
:1083C000204610BD10B54FF47A73044608460021CC
:1083D000C4E90113044B2360012320746374114624
:1083E000FEF7F6FD204610BDA8A50D00007C00227A
:1083F000FEF7F6BD10B514220446002101F090F9F5
:10840000204610BD10B5104C88B003A8FFF7F2FF4E
:108410002178BFF35B8F11F0010111D1204601914A
:10842000FBF73FFE019958B103AA0848FFF7CAFFBE
:108430002046FBF73BFE064A0649044800F036FB9F
:10844000024808B010BD00BF40E6032044E6032008
:1084500028E003204F830D00002240681146FEF7FC
:1084600055BE002240681146FEF770BE00224068EB
:108470001146FEF77BBE40680022FEF76FBE4068E3
:10848000002281F00101FEF759BE002340681A4620
:108490001946FEF74BBE002340681A461946FEF700
:1084A0003DBE002240681146FEF720BE4068002213
:1084B0000221FEF723BE002340681A46FEF70EBED7
:1084C000084B10B5282422461846002101F028F94F
:1084D000054B04804FF0FF32426004225A60034A89
:1084E0001A6010BD60E6032058E60320D8A50D00F1
:1084F00070474174704708B5007CFEF7E9FC20EA3C
:10850000E07008BD08B5007CFEF7BAFC20EAE07018
:1085100008BD08B5007CFEF7C3FC40EAE07008BD6A
:1085200008B5007CFEF7B4FC40EAE07008BD007CB2
:10853000FEF7BEBC37B5457C04462DB1207C03B0A8
:10854000BDE83040FEF794BC007C0191FEF7C0FC12
:1085500000280199F2DC284603B030BD10B5142183
:10856000044600F0A8FA204610BD000010B54FF0F8
:10857000000C0446084611464FF47A72C4E901C261
:10858000044A22600122207462741A46FEF768FCD5
:10859000204610BD0CA60D0013B50E4C2178BFF37C
:1085A0005B8F11F0010112D120460191FBF779FD9B
:1085B000019960B1084A094B0948FFF7D7FF2046E7
:1085C000FBF774FD074A0849054800F06FFA0448B4
:1085D00002B010BD88E603208CE6032010E70320DC
:1085E00094E7032028E00320F1840D0010B5836890
:1085F00004460BB900F065FAC3689847A3681BB13D
:10860000032221462046984720461021BDE810400D
:1086100000F051BA7047F8B5064615460C468F185B
:10862000BC4206D0336814F8011B9B68304698475B
:10863000F6E72846F8BD007C0022FEF769BC007C06
:108640000021FEF76DBC007C0021FEF771BC007CB0
:108650000021FEF775BC007C0021FEF779BC10B547
:108660001421044600F027FA204610BD10B54FF43F
:108670007A73044608460021C4E90113034B2360C2
:1086800020741146FEF774FC204610BD3CA60D0078
:108690000023007C1A461946FEF722BC7FB5002253
:1086A0001423CDE90122ADF804300B788DF80830A1
:1086B0004B680393CB680493007C0B7A059301A964
:1086C000FEF76EFC07B05DF804FB1FB5003B8DF8AC
:1086D00000104FF06401039118BF01236946019215
:1086E0008DF80830FFF7DAFF05B05DF804FB0123D1
:1086F000FFF7EBBF007C0022FEF7FABBC9B2FFF721
:10870000F9BF7FB50023CDE901334A6803921423F2
:10871000CA68ADF804300B7804920A7A0592007C9E
:108720008DF8083001AA1946FEF7E2FB07B05DF8A4
:1087300004FB007C0022FEF7E3BB0121FFF7F9BF39
:1087400008B50021007CFEF71BFCB0FA80F0400960
:1087500008BD08B50021007CFEF71AFCB0FA80F0D5
:10876000400908BD002340681A46FEF7B7BC4068C0
:1087700000220221FEF7C2BC002240681146FEF72B
:10878000B5BC002240681146FEF7C0BC002340681B
:108790001A461946FEF7C2BC002340681A4619461D
:1087A000FEF7C4BC4068002281F00101FEF7C6BCA0
:1087B00040680022FEF7D2BC002240681146FEF756
:1087C000D5BC002240681146FEF7C0BC2DE9F0433D
:1087D000002495B016460D460746FFF77FFD21465B
:1087E00018220EA8009400F09BFF4023CDE90C3422
:1087F00021466B460CAA3046FEF7DAFA04460028FA
:1088000046D1024601216868FEF780FC02218046BD
:1088100022466868FEF77AFC009E81462146002EBB
:1088200036D0002934D17368022B03D00A2B0BD029
:10883000F669F4E7B8F1000F04D0716938460431E5
:10884000FFF779FD4146F3E7B9F1000F01D1494641
:10885000EEE77469102201A800F062FF06238DF88C
:10886000143001AD04F108031834186859682A4619
:1088700003C20833A3421546F7D101A906A807ADE4
:10888000FFF73AFD0FCD3C1D0FC42B682370DEE7C8
:108890000098FEF785FA384615B0BDE8F083000071
:1088A000024B034A1A6000225A607047A8E703206F
:1088B00064A60D00232813B502D9002002B010BD14
:1088C000A0F10B03022B1AD8174C2178BFF35B8F52
:1088D00011F001010BD120460191FBF7E2FB019958
:1088E00028B11248FEF7C6FD2046FBF7DFFB0F4B11
:1088F0001878FEF765FB0028DFD10120DEE70128AC
:1089000009D800F083F80021007CFEF729FB80F0F5
:108910000100C0B2D2E709380128EED8FFF73CFECB
:10892000007CFEF7CDFAF2E7B0E70320B4E70320BE
:10893000232838B504460D460AD8FF2908D0FFF78A
:10894000B9FF28B129462046BDE83840FEF738BABD
:1089500038BD38B504460D46FEF73AFAFF2810D068
:10896000062804D84D2323FA00F0C30709D4204673
:10897000FFF7A0FF28B129462046BDE83840FEF7A2
:108980002FBA38BD10B50446FEF722FA031FDBB23A
:10899000012B08D92046FFF78DFF20B12046BDE806
:1089A0001040FEF725BA002010BD000038B50023A6
:1089B0002025438014230446038085600561064911
:1089C000284600F07CF804496060284600F077F8FB
:1089D000E060204638BD00BF90A60D0038B50023EA
:1089E00020254380142304460380856005610649E1
:1089F000284600F064F804496060284600F05FF8FB
:108A0000E060204638BD00BF90A60D0030B50F4D88
:108A10002978BFF35B8F11F0010487B013D128468A
:108A2000FBF73FFB78B101A8FFF7C0FF01AA214681
:108A30000748FFF71BFE2846FBF738FB054A0649A7
:108A4000034800F033F8024807B030BDC0E7032008
:108A5000C8E7032028E0032015860D0010B50F4C51
:108A60002378BFF35B8FDB0786B013D42046FBF778
:108A700018FB78B101A8FFF7B1FF01AA012108484E
:108A8000FFF7F4FD2046FBF711FB064A06490448B0
:108A900000F00CF8024806B010BD00BFC4E7032088
:108AA000DCE7032028E0032015860D000B46014675
:108AB000184600F019BEFBF7F2BAFBF7ECBAFBF769
:108AC000ECBA08B5FEF7A2FB81F0004102E000BF5E
:108AD00083F0004330B54FEA41044FEA430594EA7E
:108AE000050F08BF90EA020F1FBF54EA000C55EAB9
:108AF000020C7FEA645C7FEA655C00F0E2804FEA8A
:108B00005454D4EB5555B8BF6D420CDD2C4480EA6B
:108B1000020281EA030382EA000083EA010180EA9B
:108B2000020281EA0303362D88BF30BD11F0004FE9
:108B30004FEA01314FF4801C4CEA113102D040421F
:108B400061EB410113F0004F4FEA03334CEA13335A
:108B500002D0524263EB430394EA050F00F0A78072
:108B6000A4F10104D5F1200E0DDB02FA0EFC22FA6D
:108B700005F2801841F1000103FA0EF2801843FA61
:108B800005F359410EE0A5F120050EF1200E012A52
:108B900003FA0EFC28BF4CF0020C43FA05F3C01890
:108BA00051EBE37101F0004507D54FF0000EDCF109
:108BB000000C7EEB00006EEB0101B1F5801F1BD3B2
:108BC000B1F5001F0CD349085FEA30004FEA3C0CB6
:108BD00004F101044FEA445212F5800F80F09A80AC
:108BE000BCF1004F08BF5FEA500C50F1000041EBB0
:108BF000045141EA050130BD5FEA4C0C404141EBB4
:108C00000101013C28BFB1F5801FE9D291F0000FAE
:108C100004BF01460020B1FA81F308BF2033A3F15D
:108C20000B03B3F120020CDA0C3208DD02F1140C54
:108C3000C2F10C0201FA0CF021FA02F10CE002F18F
:108C40001402D8BFC2F1200C01FA02F120FA0CFC88
:108C5000DCBF41EA0C019040E41AA2BF01EB0451D1
:108C6000294330BD6FEA04041F3C1CDA0C340EDCCF
:108C700004F11404C4F1200220FA04F001FA02F312
:108C800040EA030021FA04F345EA030130BDC4F1D0
:108C90000C04C4F1200220FA02F001FA04F340EAC5
:108CA0000300294630BD21FA04F0294630BD94F076
:108CB000000F83F4801306BF81F480110134013D5D
:108CC0004EE77FEA645C18BF7FEA655C29D094EACE
:108CD000050F08BF90EA020F05D054EA000C04BF4C
:108CE0001946104630BD91EA030F1EBF0021002037
:108CF00030BD5FEA545C05D14000494128BF41F0D6
:108D0000004130BD14F580043CBF01F5801130BD39
:108D100001F0004545F0FE4141F470014FF00000C4
:108D200030BD7FEA645C1ABF194610467FEA655C75
:108D30001CBF0B46024650EA013406BF52EA033517
:108D400091EA030F41F4002130BD00BF90F0000F05
:108D500004BF0021704730B54FF4806404F1320441
:108D60004FF000054FF0000150E700BF90F0000FFA
:108D700004BF0021704730B54FF4806404F1320421
:108D800010F0004548BF40424FF000013EE700BFF1
:108D900042004FEAE2014FEA31014FEA02701FBF81
:108DA00012F07F4393F07F4F81F06051704732F0B3
:108DB0007F4208BF704793F07F4F04BF41F400210A
:108DC000704730B54FF4607401F0004521F0004168
:108DD0001CE700BF50EA010208BF704730B54FF0F2
:108DE00000050AE050EA010208BF704730B511F0F3
:108DF000004502D5404261EB41014FF4806404F12B
:108E000032045FEA915C3FF4D8AE4FF003025FEAB0
:108E1000DC0C18BF03325FEADC0C18BF033202EB34
:108E2000DC02C2F1200300FA03FC20FA02F001FA8E
:108E300003FE40EA0E0021FA02F11444BDE600BF31
:108E400070B54FF0FF0C4CF4E06C1CEA11541DBFE0
:108E50001CEA135594EA0C0F95EA0C0F00F0DEF8AB
:108E60002C4481EA030621EA4C5123EA4C5350EA90
:108E7000013518BF52EA033541F4801143F48013E1
:108E800038D0A0FB02CE4FF00005E1FB02E506F072
:108E90000042E0FB03E54FF00006E1FB03569CF0C7
:108EA000000F18BF4EF0010EA4F1FF04B6F5007FCD
:108EB00064F5407404D25FEA4E0E6D4146EB06063F
:108EC00042EAC62141EA55514FEAC52040EA5E50C8
:108ED0004FEACE2EB4F1FD0C88BFBCF5E06F1ED872
:108EE000BEF1004F08BF5FEA500E50F1000041EBA9
:108EF000045170BD06F0004646EA010140EA020056
:108F000081EA0301B4EB5C04C2BFD4EB0C0541EA77
:108F1000045170BD41F480114FF0000E013C00F38C
:108F2000AB8014F1360FDEBF002001F0004170BDB0
:108F3000C4F10004203C35DA0C341BDC04F11404C9
:108F4000C4F1200500FA05F320FA04F001FA05F255
:108F500040EA020001F0004221F0004110EBD37022
:108F600021FA04F642EB06015EEA430E08BF20EA4E
:108F7000D37070BDC4F10C04C4F1200500FA04F3F1
:108F800020FA05F001FA04F240EA020001F0004183
:108F900010EBD37041F100015EEA430E08BF20EAF6
:108FA000D37070BDC4F1200500FA05F24EEA020E3E
:108FB00020FA04F301FA05F243EA020321FA04F06D
:108FC00001F0004121FA04F220EA020000EBD37024
:108FD0005EEA430E08BF20EAD37070BD94F0000F24
:108FE0000FD101F00046400041EB010111F4801F58
:108FF00008BF013CF7D041EA060195F0000F18BF09
:10900000704703F00046520043EB030313F4801F44
:1090100008BF013DF7D043EA0603704794EA0C0FFE
:109020000CEA135518BF95EA0C0F0CD050EA410614
:1090300018BF52EA4306D1D181EA030101F0004191
:109040004FF0000070BD50EA410606BF10461946B9
:1090500052EA430619D094EA0C0F02D150EA0136C5
:1090600013D195EA0C0F05D152EA03361CBF104606
:1090700019460AD181EA030101F0004141F0FE41A5
:1090800041F470014FF0000070BD41F0FE4141F429
:10909000780170BD70B54FF0FF0C4CF4E06C1CEA29
:1090A00011541DBF1CEA135594EA0C0F95EA0C0FDE
:1090B00000F0A7F8A4EB050481EA030E52EA033599
:1090C0004FEA013100F088804FEA03334FF08055BA
:1090D00045EA131343EA12634FEA022245EA1115E7
:1090E00045EA10654FEA00260EF000419D4208BF98
:1090F000964244F1FD0404F5407402D25B084FEA45
:109100003202B61A65EB03055B084FEA32024FF4F0
:1091100080104FF4002CB6EB020E75EB030E22BF4D
:10912000B61A754640EA0C005B084FEA3202B6EB0D
:10913000020E75EB030E22BFB61A754640EA5C00BC
:109140005B084FEA3202B6EB020E75EB030E22BF4C
:10915000B61A754640EA9C005B084FEA3202B6EB4D
:10916000020E75EB030E22BFB61A754640EADC000C
:1091700055EA060E18D04FEA051545EA16754FEA6E
:1091800006164FEAC30343EA52734FEAC2025FEA8C
:109190001C1CC0D111F4801F0BD141EA00014FF01B
:1091A00000004FF0004CB6E711F4801F04BF0143EC
:1091B0000020B4F1FD0C88BFBCF5E06F3FF6AFAE08
:1091C000B5EB030C04BFB6EB020C5FEA500C50F198
:1091D000000041EB045170BD0EF0004E4EEA11311B
:1091E00014EB5C04C2BFD4EB0C0541EA045170BD22
:1091F00041F480114FF0000E013C90E645EA060E66
:109200008DE60CEA135594EA0C0F08BF95EA0C0F93
:109210003FF43BAF94EA0C0F0AD150EA01347FF4DB
:1092200034AF95EA0C0F7FF425AF104619462CE7B2
:1092300095EA0C0F06D152EA03353FF4FDAE104615
:10924000194622E750EA410618BF52EA43067FF466
:10925000C5AE50EA41047FF40DAF52EA43057FF4F6
:10926000EBAE12E74FF0FF3C06E000BF4FF0010C01
:1092700002E000BF4FF0010C4DF804CD4FEA410C65
:109280007FEA6C5C4FEA430C18BF7FEA6C5C1BD032
:1092900001B050EA410C0CBF52EA430C91EA030FB3
:1092A00002BF90EA020F0020704710F1000F91EA10
:1092B000030F58BF994208BF90422CBFD8176FEADE
:1092C000E37040F0010070474FEA410C7FEA6C5CAC
:1092D00002D150EA013C07D14FEA430C7FEA6C5CB3
:1092E000D6D152EA033CD3D05DF8040B704700BFDF
:1092F0008446104662468C461946634600E000BF2D
:1093000001B5FFF7B7FF002848BF10F1000F01BDFE
:109310004DF808EDFFF7F4FF0CBF012000205DF8C9
:1093200008FB00BF4DF808EDFFF7EAFF34BF01204E
:1093300000205DF808FB00BF4DF808EDFFF7E0FFE7
:1093400094BF012000205DF808FB00BF4DF808ED38
:10935000FFF7CEFF94BF012000205DF808FB00BF9F
:109360004DF808EDFFF7C4FF34BF012000205DF881
:1093700008FB00BF4A0011D212F5001211D20DD520
:109380006FF47873B3EB62520ED44FEAC12343F00B
:10939000004343EA505323FA02F070474FF00000B5
:1093A000704750EA013002D14FF0FF3070474FF064
:1093B0000000704753B94AB9002908BF00281CBFF4
:1093C0004FF0FF314FF0FF3000F08CB9ADF1080CD9
:1093D0006DE904CE00F024F8DDF804E0DDE90223B5
:1093E00004B07047D0B50C4B002206460F46FFF77D
:1093F00027FDFFF7BFFF0446FFF7A8FC074B00223D
:10940000FFF71EFD02460B4630463946FFF760FB6C
:10941000FFF7B0FF2146D0BD0000F03D0000F04155
:109420002DE9F047089D04468C46002B40F08380D0
:109430008A42174647D9B2FA82F242B1C2F12000FD
:1094400024FA00F09140974040EA010C94404FEA22
:109450001748230CBCFBF8F61FFA87FE08FB16C161
:1094600043EA014306FB0EF1994209D9FB1806F1C4
:10947000FF3080F01981994240F21681023E3B4450
:109480005B1AA4B2B3FBF8F008FB103344EA0344C0
:1094900000FB0EFEA64509D93C1900F1FF3380F010
:1094A0000581A64540F2028102383C4440EA06406C
:1094B000A4EB0E0400261DB1D4400023C5E90043EF
:1094C0003146BDE8F08702B9FFDEB2FA82F2002A27
:1094D00050D1CB1B4FEA174E1FFA87F80126B3FB7A
:1094E000FEFC210C0EFB1C3341EA034108FB0CF38C
:1094F0008B4207D979180CF1FF3002D28B4200F26F
:10950000E9808446C91AA3B2B1FBFEF00EFB10112C
:1095100043EA014408FB00F8A04507D93C1900F1D3
:10952000FF3302D2A04500F2D9801846A4EB08040C
:1095300040EA0C40BFE78B4209D9002D00F0B18012
:109540000026C5E9000130463146BDE8F087B3FA90
:1095500083F6002E4AD18B4202D3824200F2B880B9
:10956000841A61EB030101208C46002DA8D0C5E9C7
:10957000004CA5E7C2F1200320FA03F6974001FA58
:1095800002F04FEA174ED9403043030CB1FBFEF610
:109590001FFA87F80EFB161143EA014306FB08F198
:1095A000994204FA02F409D9FB1806F1FF3C80F055
:1095B0008D80994240F28A80023E3B445B1A81B220
:1095C000B3FBFEF00EFB103341EA034100FB08F34E
:1095D0008B4207D9791800F1FF3C73D28B4271D9C5
:1095E00002383944CB1A40EA064678E7C6F1200C27
:1095F00003FA06F422FA0CF31C4320FA0CF701FAE2
:1096000006F34FEA144E21FA0CF11F433B0CB1FB59
:10961000FEF91FFA84F80EFB191143EA014109FB18
:1096200008FA8A4502FA06F200FA06F308D9611828
:1096300009F1FF3048D28A4546D9A9F102092144EF
:10964000A1EB0A01BFB2B1FBFEF00EFB101147EA1D
:10965000014700FB08F8B84507D9E71900F1FF31C9
:109660002ED2B8452CD90238274440EA0940A7EB4E
:109670000807A0FB02894F45C64649461AD317D0B2
:109680005DB1B3EB0E0267EB010707FA0CFCF24089
:109690004CEA0202F740C5E9002700263146BDE842
:1096A000F0872E4628460BE70646E9E61846FDE613
:1096B0004345E5D2B8EB020E69EB04010138DFE760
:1096C0000846D2E760468DE78146B9E7664675E70A
:1096D00030464AE7ACF1020C394413E702383C4407
:1096E00024E700BF704700BF10B5054C13462CB1EE
:1096F0000A4601460220AFF3008010BD2046FCE779
:10970000000000000A44914200F1FF3300D170478D
:1097100010B511F8014B03F8014F9142F9D110BD7A
:1097200002440346934200D1704703F8011BF9E756
:1097300038B50D4B1D68AB6B04467BB91820FDF79F
:1097400045FD0A4A0A4BA863C0E90023094B836020
:109750000B23838101220023C0E90423AB6B002289
:109760001C615A6138BD00BFC4DF03200E33CDAB8E
:1097700034126DE6ECDE050010F8012B11F8013B08
:10978000012A28BF9A42F7D0D01A7047034611F831
:10979000012B03F8012B002AF9D17047024B014637
:1097A000186800F003B800BFC4DF032037B50446D3
:1097B00008460D4600F00FF8421C11462046019263
:1097C000FDF72CFD044618B1019A2946FFF79AFFD0
:1097D000204603B030BD034613F8012B002AFBD10D
:1097E000181A01387047000021400D005D400D003F
:1097F00085400D0089400D000000000073656E6417
:10980000004E6F74696669636174696F6E7320617D
:109810006C6C6F7765642E0073746F70004E6F749C
:10982000696669636174696F6E732073696C656ED4
:109830006365642E006F66660064697361726D0013
:1098400044697361726D65640041726D65640044C2
:10985000697361626C696E672072656C6179203230
:109860000064697361626C6500656E61626C6500BD
:1098700047657474696E67206C6F636174696F6E9D
:109880002E2E2E2E2E2E2E2E2E2E2E2E2E2E2E2EF8
:109890002E2E2E2E2E2E2E2E2E2E2E2E2E2E2E2EE8
:1098A00000526561647920746F207363616E207368
:1098B0006F6D6520746167732100436F756C642060
:1098C0006E6F7420636F6D6D756E69636174652072
:1098D0007769746820517769696320524649442149
:1098E0000020416363656C65726F6D6574657220FD
:1098F0006E6F7420436F6E6E65637465642E2050C6
:109900006C6561736520636865636B20636F6E6E61
:10991000656374696F6E732E00416363656C657275
:109920006F6D6574657220737461727465642E0066
:1099300055626C6F7820475053206E6F74206465B9
:109940007465637465642061742064656661756C18
:10995000742049324320616464726573732E205011
:109960006C6561736520636865636B2077697269F4
:109970006E672E0047505320737461727465642EB5
:1099800000636865636B696E67206D6F76656D65F2
:109990006E74004D6F76656D656E742064657465D8
:1099A000637465642E004775617264696E672E2E5C
:1099B0002E0053544F4C454E204D4553534147457F
:1099C0002053454E54007477696C696F5F736D73F3
:1099D0000053746F6C656E2E204C617374206C6F35
:1099E000636174696F6E3A2068747470733A2F2FD4
:1099F0007777772E676F6F676C652E636F6D2F6D4E
:109A00006170732F7365617263682F3F6170693D88
:109A1000312671756572793D002C00436865636B72
:109A2000696E672052464944003030303030300093
:109A30005461673A200038353037313735313432A8
:109A400031313500417574686F72697A65642041FF
:109A500063636573730031343038393130333332F6
:109A60003136003835303731393731363535300019
:109A70004D6173746572204B657920417574686F10
:109A800072697A656400204163636573732064655D
:109A90006E6965640056656869636C65204F6E0089
:109AA00056656869636C65204F666620232323230F
:109AB0002323232323232323232323232323232376
:109AC000232323232323232323232323232300525A
:109AD0006561647920746F207374617274005665D7
