:02000002D0002C
:1040000000400D0078A70D00000006000D0005011E
:084010000401DB0700000000C1
:0440180004980D00FB
:1040200009480A49884208B505D0094A824202D0A7
:10403000121A05F075FB0748074A0021121A05F00D
:104040007DFB014808BD00BFB0DF0320CCA60D00FA
:1040500034E0032034E00320F0E7032070B5074E7E
:10406000074C03F0DFFDA41BA4080025A54200D1E6
:1040700070BD56F8043B98470135F7E79CA60D0044
:10408000C0A60D0000F086BD08B500F0D3FBBDE86A
:10409000084003F089BD03F011B803F00FB803F036
:1040A00015B80078B0FA80F040097047012303701A
:1040B00070471068704770B5044600F5D47500F17C
:1040C0001806B54204D0143D284603F075FAF8E707
:1040D000201D03F071FA204670BD000038B511496B
:1040E000054603F06CFB044650B104F05FF90E493D
:1040F00003F0F5FB0D4B012018700D4B186038BD17
:104100000C49284603F05BFB0028F8D004F04EF978
:10411000094903F0E4FB054B1C70054B02201C60B1
:10412000EDE700BF18980D001D980D00C4DF0320B7
:10413000B0DF032034980D0039980D001FB500231F
:10414000019303930C23ADF80430044B0293042233
:1041500001AB02F08BFF05B05DF804FBB3400D002E
:10416000C06820B183888B4201D08068F9E770472E
:10417000F8B5037D05460F4616466BB100680E2163
:10418000FFF7EEFF80B1037BBB4207D1C3893288C2
:10419000934201D01343C3812846F8BD806818B10B
:1041A00083880E2BFAD1EDE70B49142004F055FC5F
:1041B000044670B11422002105F0C0FA074B2360B9
:1041C0000E23A3802B69A36033882773E3812C61BE
:1041D000E2E72875E0E700BF98A60D001000030095
:1041E00038B50A49054603F0EAFA044628B1012128
:1041F000BDE83840052004F07CBB0549284603F0A3
:10420000DEFA08B12146F3E738BD00BF4DA40D002A
:1042100051980D0038B50A49054603F0D0FA044616
:1042200028B10121BDE83840042004F062BB0549F3
:10423000284603F0C4FA08B12146F3E738BD00BFB1
:104240004DA40D0051980D001FB52149044603F0FF
:10425000B6FA00B304F0AAF81E4903F040FB1E4969
:10426000684603F0F4F96846FFF7BAFF684603F0C2
:10427000A3F91A49684603F0EAF96846FFF7CAFF4E
:10428000684603F099F9164A00231370154A012075
:10429000136004B010BD1449204603F090FA0028C2
:1042A000F7D004F083F8114903F019FB0B49684675
:1042B00003F0CDF96846FFF793FF684603F07CF9F9
:1042C000074A01231370074A02201360E1E700BF89
:1042D00055980D005C980D004DA40D0051980D00EF
:1042E000B4DF0320B8DF032058980D0065980D0057
:1042F00030B585B0054604F059F8224903F0EFFACD
:104300002149284603F05BFA0446E8B11F4B2049D7
:1043100001241C601F4B1C701F4B68461C6003F07F
:1043200096F96846FFF776FF684603F045F91B49A2
:10433000684603F08CF96846FFF752FF684603F0C1
:104340003BF9204605B030BD1549284603F037FA41
:104350000028F7D00D4B11491C60684603F077F92F
:104360006846FFF757FF684603F026F90849684694
:1043700003F06DF96846FFF733FF684603F01CF958
:104380000220DFE76B980D007D980D0058E00320B8
:104390004DA40D00B4DF0320B8DF032051980D00B9
:1043A00085980D00000000007FB503F0FFFF424933
:1043B00003F095FA414840F24C4102F0ADF9404B10
:1043C000187018B93F4B48F6B8021A6040F24C41D9
:1043D0003A483D4E3D4D02F07DF940F24C4130608F
:1043E000364802F088F940F24C412860334802F028
:1043F000A6F94FF48B7390FBF3F0354B35491860F9
:10440000354803F077F93349344803F073F93068DD
:1044100004F07CFC26A3D3E9002304F00BFE41EC5E
:10442000100B0621684603F08AF969462A4803F012
:10443000B1F9684603F0C0F803F0B8FF04463068ED
:1044400004F064FC1AA3D3E9002304F0F3FD41EC6B
:10445000100B0221204603F035FB286804F056FCBF
:1044600013A3D3E9002304F0E5FD41EC100B062172
:10447000684603F064F96946184803F08BF968460A
:1044800003F09AF803F092FF0446286804F03EFC1B
:1044900007A3D3E9002304F0CDFD41EC100B02216A
:1044A000204603F00FFB04B070BD00BFAFF30080E7
:1044B00000000000D01263418C980D0088E00320BA
:1044C0005CE00320BCDF032070E0032084E00320D5
:1044D000ECE5032083A10D0060E0032074E00320DD
:1044E00008B504F063FA0146084802F02BFA48B117
:1044F00003F05CFF064903F0F2F9BDE80840034809
:1045000002F0C2BB03F052FF0249F4E734E4032097
:10451000BD980D00D6980D0010B50A480022022162
:1045200002F0D0F9044630B903F040FF064903F029
:10453000D6F9204610BD03F039FF044903F0CFF946
:104540000120F7E73CE00320FD980D0035990D00B0
:1045500010B504F02BFA422201460E4801F0C6FFC6
:10456000044680B903F022FF0B4903F0C2F9FA2296
:104570000121084802F02EF840F24C41054801F0B4
:10458000D3FF204610BD03F011FF044903F0A7F943
:10459000EDE700BF88E003204C990D0090990D00D5
:1045A00008B503F003FF0A4903F099F9094802F03E
:1045B00028F908B9002008BD064802F04BF9002888
:1045C000F8D003F0F3FE044903F089F90120F2E783
:1045D0009D990D003CE00320AF990D001FB503F03D
:1045E000E5FE154903F07BF9FFF7DEFEFFF7D8FF84
:1045F000F8B1124B1B680A2B1BDD114B114901222C
:1046000068461A7003F023F86846FFF71DFE6846F7
:1046100002F0D2FF0C49684603F019F86846FFF72C
:1046200067FE684602F0C8FF03F0C0FE074903F0CA
:1046300056F905B05DF804FBC2990D00ECE50320C6
:10464000F0E5032058980D007D980D00CE990D00DF
:104650001FB50F4B02681B788DF800300D493C23C5
:1046600002A803F05FFC039C7CB16368013B6360BC
:104670005BB9236820469B689847A368013BA36009
:104680001BB923682046DB689847002004B010BDA2
:1046900038E00320E2990D0000B589B0002835D03C
:1046A00002F036FB1B4A1C4913680968C31A8B4287
:1046B0002CDD106003F07AFE184903F010F9184958
:1046C00004A802F0C4FF04A8FFF712FE04A802F039
:1046D00073FF1449684602F0BAFF1349684603F0B5
:1046E00059F81249684603F059F81149684603F031
:1046F00051F8694604A802F0EAFF04A8FFF7A8FFF2
:1047000004A802F059FF684602F056FF09B05DF8B0
:1047100004FB00BFE8E50320C0DF0320CE990D00B5
:104720007D980D00ED990D0060E00320359A0D0095
:1047300074E003201FB503F039FE2E4C2E4903F020
:10474000CEF82E49684602F0C5F96946204602F0C7
:10475000C9FF684602F030FF2949204603F02FF8D0
:1047600048B903F023FE274903F0A2F803F01EFE28
:10477000216803F0B4F8322003F0C2F922491D4841
:1047800003F01DF858B103F011FE204903F0A7F81B
:104790001F4A002313701F4A136004B010BD1E4946
:1047A000144803F00CF804460028ECD11B491148CA
:1047B00003F005F8B8B103F0F9FD194903F08FF8DB
:1047C000134B18491C70134B1C60174B68461C7028
:1047D00002F03DFF6846FFF71DFD684602F0ECFE63
:1047E000124B1C60D9E703F0E1FD114903F077F8A3
:1047F000D3E700BFF4E50320379A0D0034E403202B
:10480000459A0D004C9A0D00529A0D00609A0D00C9
:10481000B4DF0320B8DF0320729A0D007F9A0D00E9
:104820008C9A0D0051980D00F0E5032058E003200C
:10483000A29A0D002DE9F04301218BB0032004F072
:1048400058F803F0B3FD8849DFF85C92874E03F017
:1048500046F84F463268D9F80030854D854CDFF870
:104860004C829B1A2A68934202DB2378002B5DD08E
:10487000FFF79AFD02F04CFA3860022004F052F87B
:1048800001287D4D0FD1207003F090FD7B4903F08E
:1048900026F82378CBB92B786BB198F80030BBB9E8
:1048A000FFF79CFE14E003F081FD754903F017F853
:1048B00000232370EFE7734904A802F0C8FE04A8A0
:1048C000FFF7C2FC04A802F077FE2B78002BE4D19E
:1048D00023782BB12B78CBB1FFF72CFF237893B93A
:1048E00098F800302BB1684B1878FFF7D5FEFFF72A
:1048F00021FF664B1B68012BACD103F057FD6449C7
:1049000002F0EDFFA6E72B78002BE9D103F04EFD76
:10491000604902F0E4FF604904A802F098FE04A890
:10492000FFF75EFC04A802F047FED9E798F80040C4
:10493000002C40F09580534904A802F088FE04A89A
:10494000FFF782FC04A802F037FE2146042003F0A2
:10495000D0FF0121514BADF8194005A8CDE907441E
:1049600004908DF81B408DF8241005938DF81810D5
:10497000FFF7F6FB002841D08389052B38D10123AE
:1049800083739DF824305BB1454B0498D3F80090B5
:104990000421FFF7E5FB8046002844D0C0F80C90C6
:1049A000002301AA042104A8ADF80430FFF7E0FBBE
:1049B00004A901A802F0CEFC019B002B46D09B88E5
:1049C0000E2B43D147F230532B6002F0A1F9306037
:1049D00002F09EF93860019808B102F077FB089860
:1049E00000283DD084680C2104F035F82046F7E714
:1049F000806818B18388012BFAD1BBE729491020C0
:104A000004F02BF8044640B31022002104F096FE77
:104A1000089A224B2360A26001230522A380A28171
:104A2000A3730894ADE71F49102004F016F804465C
:104A300098B11022414604F081FE184B23600423F4
:104A4000A380089B0894C4E90239A9E742F21073D5
:104A50002B60134B3C221A60B7E78DF824409FE788
:104A60000BB0BDE8F08300BFB19A0D00E4E5032070
:104A7000BCDF0320E0E50320B4DF0320B69A0D007D
:104A8000C19A0D0058980D00C4DF032058E00320A0
:104A9000FF9A0D00F09A0D004DA40D0010000300C8
:104AA000C8DF032098A60D0054E00320F0E50320A2
:104AB0002DE9F04724492548FFF740FB244981466A
:104AC0002448FFF73BFB2449002302228046234869
:104AD00002F0CCFA2249002302220746214802F0C4
:104AE000C5FA0023204902220646204802F0BEFAF9
:104AF0001F4A20498246204803F021F91F4A2049D5
:104B000005461D4803F01BF91E4A1F4904461A4872
:104B100003F015F9B9F1000F0AD0B8F1000F07D072
:104B200037B12EB1BAF1000F02D00DB104B130B9D6
:104B300003F03CFC1549BDE8F04702F0D0BE03F09D
:104B400035FC1349F7E700BF60E00320109B0D0020
:104B500074E00320199B0D00B0DF0320239B0D00A0
:104B600058E00320079B0D00B8DF03205F980D007D
:104B70007D980D00F1420D00137D0D0058980D0039
:104B800049420D002D9B0D00DD400D00359B0D00B1
:104B90004A9B0D0007B5FFF78BFF03F007FC4FF4AE
:104BA000E13103F0F7FB03F001FF03F045FD0021C5
:104BB00001A802F0BAFA01A802F033FB01A802F042
:104BC000C3FA0021052003F083FE0121042003F035
:104BD0007FFE0121042003F08CFE0121032003F05D
:104BE00077FE0021032003F084FE0121022003F060
:104BF0006FFE0021022003F07CFEFFF771FCFFF73F
:104C00008BFCFFF7A5FC03B05DF804FBF8B51D4B6A
:104C10001D4D1E4F1E4C01261E702946384602F0BF
:104C200016FD38461B4F1C4A214603F00FFF29464C
:104C3000384602F00CFD3846184F174A214603F05B
:104C400005FF2946384602F002FD134A2146384640
:104C500003F0FCFE0021304602F082F9104C1148AE
:104C600000F02AF81D21104801F07AFDD7212046D6
:104C700001F04CFE2046084A0C49BDE8F84003F01C
:104C8000E5BE00BF38E0032083A10D0060E00320F3
:104C9000B9750D0074E0032034E00320F4E503202F
:104CA00034E4032088E003203CE00320B7400D00FB
:104CB0000368C9B29B6818474221A0F8481200F265
:104CC0004B21C0F858131C4910B5202200F24D2486
:104CD000C0E9DA41027000F24D340022C0E9D71277
:104CE000C0E9DE414FF40071A0F88013642180F820
:104CF00082134FF00121C0E9E211C0F8901390F83F
:104D00009C13A0F8F42062F3C301C0E9D422C0E9E7
:104D1000DC22A0F8342280F83622C0F8402280F845
:104D20004A22C0F86423C0F88423A0F8A8230271A3
:104D300080F89C1310BD00BF00000202D0F84002B2
:104D400010B103689B6818477047704710B5B0F8FA
:104D5000F430012B044614D10A0202F44072A4F884
:104D6000A8230133A4F8F4302046FFF7EEFFB4F88F
:104D7000A833B4F8F4209A4204BF002384F83432F4
:104D800010BD022BEDD1B0F8A8230A430632E6E7A6
:104D90002DE9F84304460D4690F84812D0F8380241
:104DA00003F07CFCFF21D4F83802FFF781FFD4F830
:104DB0003802002103F08EFC064610B10C20BDE83D
:104DC000F88394F84812D4F8380203F067FCD4F85A
:104DD00038020368B5219B689847D4F83802036805
:104DE00062219B689847D4F83802297803689B6849
:104DF0009847D4F83802697803689B689847A9787F
:104E0000D4F83802FFF754FF6988D4F83802090A49
:104E1000FFF74EFFD4F83802314603F05BFC002860
:104E2000CCD1B5F802800646B8F1010FD4F83802AB
:104E300094F8481226D927785FFA88F2974228BF5B
:104E4000174603F02BFC4FF00009BFB21FFA89F39D
:104E50009F42D4F8380209D9AB680268334492689B
:104E600013F80910904709F10109EFE7002103F059
:104E700031FC0028A2D13E44A8EB0707B6B21FFAC6
:104E800087F8D1E703F00AFCB8F1010F06D1D4F896
:104E90003802A96803684246DB689847D4F83802AC
:104EA000297B03689B689847D4F83802697B0368BC
:104EB0009B689847D4F8380203F010FC00283FF4B0
:104EC0007EAF7BE770B50546D0F83C0203680C4620
:104ED0009B68B5219847D5F83C02036862219B681E
:104EE0009847D5F83C02217803689B689847D5F825
:104EF0003C02617803689B689847D5F83C02A1782A
:104F000003689B689847D5F83C0261880368090AE2
:104F10009B6898470026D5F83C0262880368B24235
:104F20009B6804DDA268915D98470136F3E7217B19
:104F30009847D5F83C02617B0368BDE870409B68E8
:104F4000184730B54A780D784C882A4454FA82F0D4
:104F500000EB142355FA82F203F0FF0352FA80F2B9
:104F60000B7313444B73002293B29C420AD98B6893
:104F7000087B9B5C0344487BDBB20B7303444B739D
:104F80000132F1E730BD90F89633194490F8973329
:104F9000C9B280F89613194480F8971370470144FA
:104FA00091F84F3291F84E021B0443EA002391F826
:104FB0004D02034391F8500243EA0060704700003D
:104FC00010B50C78012C024603D0282C00F0678124
:104FD00010BD0B68F14923F0FF038B4240F0D480F1
:104FE0000021FFF7DCFF0021C2F8D0001046FFF7D8
:104FF000D6FF4FF47A73B0FBF3F101FB1303A2F871
:10500000783092F8521292F8513243EA0123A2F812
:10501000703092F8533282F8723092F8543282F83B
:10502000733092F8553282F8743092F8563282F822
:10503000753092F8573282F8763092F8583203F091
:105040000101C3F3400382F8801082F881301046DA
:105050001021FFF7A4FF92F8613282F8AD3092F888
:105060006232D06703F0010182F88210C3F340017D
:1050700082F883109911C3F3401382F8843092F8B8
:10508000643282F8AC3082F8AE1010461821FFF777
:1050900086FF1C21C2F88C001046FFF780FF2021FC
:1050A000C2F888001046FFF77AFF2421C2F890006A
:1050B0001046FFF774FF2821C2F894001046FFF74E
:1050C0006EFF2C21C2F898001046FFF768FF3021D0
:1050D000C2F89C001046FFF762FF3421C2F8A0001E
:1050E0001046FFF75CFF3821C2F8A4001046FFF716
:1050F00056FF3C21C2F8A8001046FFF750FF4021A0
:10510000C2F8B0001046FFF74AFF4421C2F8B400CD
:105110001046FFF744FF4821C2F8B8001046FFF7D9
:105120003EFF92F89A1292F89932C2F8BC0043EA14
:105130000123A2F8C03092F89B32542103F00103FE
:10514000104682F8C230FFF72AFF92F8A61292F8B2
:10515000A532C2F8C40043EA0123A2F8C83092F88D
:10516000A81292F8A73243EA0123A2F8CA304FF0FE
:10517000FF33C2F8983392F89C3323F0070343F0CF
:10518000070382F89C3323E785498B4247D10421EA
:10519000FFF705FF0821C2F8D0001046FFF7FFFE19
:1051A0000C21C2F8D8001046FFF7F9FE1021C2F812
:1051B000D4001046FFF7F3FE1421C2F8DC001046BD
:1051C000FFF7EDFE92F8653282F8F33092F866321E
:1051D00082F8F23092F8673282F8F03092F8683252
:1051E000C2F8E00082F8F1301C211046FFF7D7FE2C
:1051F0002021C2F8E8001046FFF7D1FE92F898335C
:10520000C2F8EC0043F0010382F89833B2F8A033FF
:1052100043F4FF5343F01D03A2F8A033D8E66149DD
:105220008B427FF4D5AE90F8521290F8513243EA97
:105230000123A0F8F63090F8541290F8533243EA64
:105240000123A0F8F83090F8561290F8553243EA4E
:105250000123A0F8FA3090F8581290F8573243EA38
:105260000123A0F8FC3090F85A1290F8593243EA22
:105270000123A0F8FE3090F85C1290F85B3243EA0C
:105280000123A0F8003190F85E1290F85D3243EAF5
:105290000123A0F80231FF2380F8A23398E60B68BF
:1052A000414923F0FF038B422CD10021FFF777FE09
:1052B0000821C2F8A8011046FFF771FE0C21C2F8C0
:1052C000AC011046FFF76BFE1021C2F8B00110468A
:1052D000FFF765FE1421C2F8B4011046FFF75FFE28
:1052E0001821C2F8B8011046FFF759FE1C21C2F878
:1052F000BC011046FFF753FE0123C2F8C00182F83B
:10530000A43365E629498B4252D10821FFF747FEB5
:105310000C21C2F8CC011046FFF741FE1021C2F863
:10532000D0011046FFF73BFE1421C2F8D40110460D
:10533000FFF735FE1821C2F8D8011046FFF72FFEFF
:105340001C21C2F8DC011046FFF729FE2021C2F81B
:10535000E0011046FFF723FE0021C2F8E4011046E9
:10536000FFF71DFEC0F3002382F8C431C0F34023D1
:1053700082F8C531C0F3802382F8C631C0F3C02360
:1053800082F8C731C0F3003382F8C831C0F340302F
:10539000012382F8C90182F8A53319E600075C00F1
:1053A0000014240000041200000120000002240068
:1053B000B3F5900F7FF40CAE0021FFF7F0FD92F8EB
:1053C000521292F85132C2F8E80143EA0123A2F8DE
:1053D000EC3192F8533282F8EE3192F8543282F87E
:1053E000EF3192F8553282F8F03192F8563282F865
:1053F000F13192F8573282F8F23110460C21FFF762
:10540000CEFD92F85D3282F8FC31C2F8F801142129
:105410001046FFF7C4FD1821C2F804021046FFF73A
:10542000BEFD1C21C2F808021046FFF7B8FD20217E
:10543000C2F80C021046FFF7B2FD2421C2F8100298
:105440001046FFF7ACFD2146C2F814021046FFF7E4
:10545000A6FD2C21C2F818021046FFF7A0FD30214E
:10546000C2F81C021046FFF79AFD3421C2F8200250
:105470001046FFF794FD3821C2F824021046FFF7CA
:105480008EFD3C21C2F828021046FFF788FD40211E
:10549000C2F82C021046FFF782FD92F85832C2F88B
:1054A000300203F0010182F8F311C3F34001C3F3AA
:1054B000800382F8F53192F85E3282F8F41103F03D
:1054C000010182F8FD11C3F3400182F8FE11C3F31C
:1054D000800182F8FF11C3F3C001C3F3001382F807
:1054E000001282F80132012382F8A63370E500BF72
:1054F00012B903689B681847D2B202F0FCB90000E9
:10550000F8B590F8493204460D46002B7CD03F494F
:10551000D0F8440202F0D3F92B78012B39D13C4961
:10552000D4F8440202F0CBF93A49D4F8440202F02C
:10553000C6F92B8840F20172934242D13649D4F821
:10554000440202F0BCF93549D4F8440202F0B7F93C
:105550006988D4F84402102202F0CDF994F88063EF
:10556000002E46D12E49D4F844022E4F02F0A7F95E
:105570006B88D4F84402B34240DD394602F09FF90B
:10558000AB68D4F84402995D1022FFF7B1FF0136F1
:10559000EEE7052BD4F8440201D12349C2E7062BDC
:1055A00001D12249BEE70A2B01D12149BAE721499D
:1055B00002F085F92978D4F844021022FFF798FF09
:1055C000B2E740F606029342D4F8440201D11A49E8
:1055D000B7E740F60612934201D11849B1E71549E1
:1055E00002F06DF96978D4F844021022FFF780FFC9
:1055F000A9E71349D4F8440202F061F9D4F844024F
:10560000BDE8F84002F05FB9F8BD00BF729B0D0025
:10561000779B0D00879B0D008C9B0D009A9B0D00C6
:10562000A39B0D0082A10D007B9B0D007F9B0D00B5
:10563000839B0D002D9C0D00909B0D00959B0D00F4
:10564000AD9B0D0038B50546FFF752FF04462846CE
:1056500002F039F9204438BD2DE9F843984690F816
:1056600081339DF82060002B53881546928803F102
:1056700003030CBF4FF480794FF0020993420446B4
:105680000F4601DBFFF77FFCAA8812B92F700026B6
:105690006CE0012A01D16F70F9E7022A01D16F8015
:1056A000F5E7032A698803D141EA07216980EEE71B
:1056B0000B1D9A4201D12F73E9E705318A4240F070
:1056C000558100226F7384F83422B4F89633A98987
:1056D00099422B7840F0DF8001224345AA7363D1C1
:1056E0006A78B24260D10123EB7394F84932ABB3CC
:1056F000AC49D4F8440202F0E2F80A226988D4F8EE
:10570000440202F0F8F8A849D4F8440202F0D7F8AD
:1057100029462046FFF7F4FEAB7B012B04D1A349B9
:10572000D4F8440202F0E5F894F85E33012B04D17A
:105730009F49D4F8440202F0DCF8EB7B012B04D142
:105740009C49D4F8440202F0D4F894F85F33012B5A
:1057500004D19949D4F8440202F0CBF894F880635C
:10576000002E94D129462046FFF72AFCAB8801334E
:105770009BB2AB801EB9B3F5807F40F0118100234E
:1057800084F8343294F8493223B994F84A32002B21
:1057900000F00681D4F84402002E00F0FF80874913
:1057A000BDE8F84302F0A5B82A8840F205118A4204
:1057B00026D1AA681178414502D15278B24292D0DE
:1057C000434592D16B7894F84922072B40D106F0DB
:1057D000EF03042B89D1002AC0D07949D4F84402C0
:1057E00002F06DF810223146D4F84402FFF780FE33
:1057F0007449D4F8440202F062F86978102222E079
:10580000052ADDD1AA6811784145D9D15278B24232
:10581000D6D10323EB7394F84932002B9ED06A490A
:10582000D4F8440202F04BF8AB68D4F8440219787B
:105830001022FFF75DFE6549D4F8440202F03FF8FC
:10584000AB6859781022D4F84402FFF7FBFE4CE70E
:10585000142B03D1072EBED0042EBBE7042B03D19B
:10586000072EB8D0142EB5E7012B08D116F0FD0F86
:105870007FF43BAF002A3FF471AF5549AEE7022BEE
:1058800003D1012E3FF631AFF4E7002B7FF42DAFAB
:10589000731E012BF6E74345AA735DD16A78B242C5
:1058A0005AD10023EB7394F8493223B994F84A3261
:1058B000002B3FF4ECAE4749D4F8440201F0FFFF5F
:1058C0004549D4F8440201F0FAFF297BD4F8440298
:1058D0000A22FFF70DFE4149D4F8440201F0EFFF20
:1058E000697BD4F844020A22FFF702FE3C49D4F84F
:1058F000440201F0E4FF94F89613D4F844020A221B
:10590000FFF7F6FD3749D4F8440201F0D8FF0A2228
:1059100094F89713D4F84402FFF7EAFDD4F8440250
:1059200001F0D1FF3049D4F8440201F0C8FF2F49FB
:10593000D4F8440201F0C3FF6988D4F844020A2273
:1059400001F0D9FF1849D4F8440201F0B8FF294604
:105950002046FFF7D5FD9AE6052BA4D1AB681A784F
:105960004245A0D15B78B3429DD19AE7EB88288865
:1059700094F8806340F20171884208BF0023002E32
:105980007FF485AED11E99427FF781AE043AD21AD8
:105990004A45B6BFAB6801269F54E7E61449FFE6C7
:1059A000BDE8F8837D9C0D008E9C0D009A9C0D0037
:1059B000AE9C0D00C29C0D00DC9C0D00549D0D00A2
:1059C000EE9B0D00309C0D00BF9B0D001E9C0D003A
:1059D000409C0D00F69C0D00079D0D00149D0D00D0
:1059E000219D0D00359D0D00499D0D00879C0D00EA
:1059F000789D0D002DE9F743984690F834329DF8D4
:105A00002860012B04460D4617460DD8B5292DD127
:105A10000023A0F894330222A0F874334FF40073EB
:105A200080F83422A0F8803394F83432022B40F00E
:105A30005F81B4F8942332BBB52D02D0002384F8E3
:105A4000343294F881330096012B40F0498143466B
:105A500004F5547229462046FFF7FEFDB4F894334E
:105A60000133A4F8943303B0BDE8F083242903D1B3
:105A7000012384F83432D7E7D329D5D10023A0F805
:105A8000F4300323F5E7012A01D1622DD5E7022A7C
:105A90000CD1002384F87053A4F89633A4F874331F
:105AA00084F87E23FB88A4F87633CAE7032A70D1F2
:105AB00094F8703384F87153052BC2D098454AD1BD
:105AC000B5420BD1002384F8813387F8008094F825
:105AD00071337B70B4F87433BB80B2E7072D29D1E2
:105AE00006F0EF02042A36D1002284F881233B70AD
:105AF00094F871337B70B4F87433BB8094F84932F6
:105B0000002B9ED08349D4F8440201F0D8FE102225
:105B10003146D4F84402FFF7EBFC7F49D4F8440245
:105B200001F0CDFE94F87113D4F844021022FFF76F
:105B300089FD86E7142D03D1072ED5D0042ED2E798
:105B4000042D03D1072ECFD0142ECCE7012D06D182
:105B500016F0FD0F07D0012384F8803371E7022D82
:105B600012D1012EF7D8002284F881233B7094F8DB
:105B700071337B70B4F87433BB8094F84932002BD6
:105B80003FF45FAF6549BEE7002DE4D1721E012AE4
:105B9000E8E7042A02D1A4F8725352E7052A06D195
:105BA000B4F8723343EA0523A4F8723349E7062AAE
:105BB00024D1B4F87233EBB994F84932BBB15849E7
:105BC000D4F8440201F07BFE102294F87013D4F84C
:105BD0004402FFF78DFC5349D4F8440201F06FFEF4
:105BE00094F87113D4F844021022FFF72BFD84F8C7
:105BF0007C5326E7D4F878331D7022E7072A7FF418
:105C000020AFB4F872339BBB84F87D5394F8813392
:105C1000022B7FF416AF94F8701305297FF411AFAF
:105C2000D4F878331A7842457FF40BAF5A78B242F1
:105C30007FF407AFB4F87223022A21D184F85013FD
:105C4000A4F8522394F87113B4F87423A4F85423DD
:105C5000012084F8810384F85113D4F858231B7869
:105C60001370D4F87823D4F8583352785A70E8E691
:105C7000012B16BFD4F8783384F87C535D70C5E7E8
:105C800094F84932002B3FF4DCAE2749D4F84402A3
:105C900001F015FED4F87833D4F8440219781022B4
:105CA000FFF726FC1F49D4F8440201F008FED4F89F
:105CB0007833D4F8440259781022FFF719FC1B49B5
:105CC000D4F8440201F0FBFDD4F84492B4F8721306
:105CD0000A22484601F00FFE484601F0F4FDB0E606
:105CE00013B943463A46B5E6434604F55C72B1E65D
:105CF000012B04D129462046FFF720F8B3E6032BF9
:105D00007FF4B1AE2946204603B0BDE8F043FFF76B
:105D10001DB800BFA19D0D00309C0D00E09D0D0041
:105D20001A9E0D00289C0D004A9E0D007A9E0D00C3
:105D30002DE9F04F044685B099460F46904600F095
:105D4000E7FFD4F88433C01A94F882339842C0F045
:105D5000DC8094F84812D4F8380202F09FFCFD2150
:105D6000D4F83802FEF7A4FFD4F83802002102F07C
:105D7000B1FC18B1002005B0BDE8F08F94F84812CE
:105D8000D4F83802022202F086FCD4F83802036804
:105D90001B69984720B994F84932D3B15C4914E0A3
:105DA000D4F8380203685B6998470546D4F838028E
:105DB00003685B699847C6B2FF2E94F849320DD14B
:105DC00013B994F84A3223B15249D4F8440201F08D
:105DD00090FD00F09DFFC4F88403CBE746EA052060
:105DE00085B202B2002DD6D0002A14DAC5F30E0512
:105DF00013B994F84A3273B14749D4F8440201F018
:105E00005EFDD4F844620A222946304601F073FD53
:105E1000304601F058FD642D94F8493259D97BB1D0
:105E20003E49D4F8440201F04AFD2946D4F8440220
:105E30000A2201F060FD3A49D4F8440201F059FD0C
:105E4000DFF8E8A0002D60D094F84812D4F83802AA
:105E500002F024FCFF21D4F83802FEF729FFD4F821
:105E60003802002102F036FC002883D12678AE42A9
:105E700028BF2E4694F84812D4F83802324602F071
:105E80000AFCD4F8380203681B69984700283FF4DD
:105E900071AF4FF0000B1FFA8BF3B342039331D273
:105EA000D4F83802026852699047039BC1B2FBB92B
:105EB0007F291DD194F8493213B994F84A3223B19D
:105EC000D4F84402514601F014FD052001F018FEFB
:105ED000D0E7002BB4D01349D4F8440201F0EFFC12
:105EE0002946D4F844020A2201F005FD0E49A3E731
:105EF000CDF8009043463A462046FFF77BFD0BF174
:105F0000010BC8E7AD1BADB29CE7012033E700BF32
:105F1000AF9E0D00819E0D00D79E0D00FD9E0D00D1
:105F20001D9F0D002D9F0D00459F0D004C9F0D00E6
:105F3000F7B504460D4616461F46D4F83C020368E2
:105F40001B69984760B1D4F83C0203685B699847C5
:105F50000097C1B233462A462046FFF74BFDECE7D7
:105F6000012003B0F0BD10B490F836421CB95DF8C2
:105F7000044BFFF7DDBE012C03D15DF8044BFFF7A6
:105F8000D7BF00205DF8044B704710B42AB90268EF
:105F90005DF8044B9268C9B210475DF8044BD2B269
:105FA00001F0A9BC2DE9F74F984602238B7380F8C6
:105FB0005E3380F87E33CB7380F85F3380F87F33B5
:105FC000BDF83090DFF8B4A2DFF8B4B204460D4655
:105FD000174600F09DFE064600F09AFE801B4845DD
:105FE00080F0AC8043463A4629462046FFF7BBFF87
:105FF000002800F09E80EA7B94F85F33012A26D1C6
:10600000012B40F00C81A97B012929783CD1B942B0
:106010003FD16878404537D194F849321BB90B20FD
:1060200003B0BDE8F08F8949D4F8440201F047FC81
:10603000D4F8445200F06CFE0A22811B2846FFF778
:10604000A4FF8349D4F8440201F053FCE7E7022A95
:1060500037D1012B40F0C98094F8493293B17D4982
:10606000D4F8440201F02BFCD4F8445200F050FE66
:106070000A22811B2846FFF788FF7549D4F844029D
:1060800001F037FC0A20CBE7B94202D169784145DB
:106090001AD094F8493293B16F49D4F8440201F010
:1060A0000EFCD4F8445200F033FE0A22811B28462D
:1060B000FFF76BFF6649D4F8440201F01AFC0D208B
:1060C000AEE7012B40F09180E989002971D194F865
:1060D000493293B16149D4F8440201F0F0FBD4F89D
:1060E000445200F015FE0A22811B2846FFF74DFF9F
:1060F0005749D4F8440201F0FCFB022090E7022B40
:1061000017D194F84932A3B15146D4F8440201F0B2
:10611000D6FBD4F84432019300F0FAFD019B811BB9
:106120000A221846FFF731FFD4F84402594601F01D
:10613000E0FB4FF4FA7000F0E3FD4DE7EA7B94F8E2
:106140004932012A1FD194F85F23022A1BD1AA7B6E
:10615000012A18D12A78BA4215D16A78424512D15B
:10616000002B3FF45CAF3E49D4F8440201F0A7FB9A
:10617000D4F8445200F0CCFD0A22811B2846FFF7D8
:1061800004FF38495EE793B13749D4F8440201F07F
:1061900096FBD4F8445200F0BBFD0A22811B28462E
:1061A000FFF7F3FE3149D4F8440201F0A2FB0320CB
:1061B00036E7012ABDD01343BBD194F8493293B1DD
:1061C0002B49D4F8440201F07AFBD4F8445200F091
:1061D0009FFD0A22811B2846FFF7D7FE1C49D4F8F1
:1061E000440201F086FB01201AE7032BE3D194F867
:1061F000493293B11F49D4F8440201F060FBD4F84E
:10620000445200F085FD0A22811B2846FFF7BDFE9F
:106210000F49D4F8440201F06CFB042000E7032B83
:10622000E5D0002B7FF46BAFAB7B012B81D12B78BA
:10623000BB427FF47EAF6B7843457FF47AAF94F82E
:106240004932002B3FF4EBAE0B49EDE6849F0D0085
:10625000C19F0D00C79F0D00F89F0D002AA00D00E3
:1062600049A10D007CA10D0084A10D00A7A10D0086
:10627000CAA00D0050A00D008BA00D000BA10D00B9
:1062800031A10D002DE9F84F0D460221A97380F8C8
:106290005E1380F87E13E97380F85F1380F87F1334
:1062A000BDF8289004461746984600F031FD40F2AC
:1062B000011A064640F2012B00F02AFD801B4845DA
:1062C0006AD243463A4629462046FFF74CFE00284C
:1062D0005DD0EA8952451ED12B78BB421BD16B7829
:1062E000434518D194F8493293B13749D4F8440260
:1062F00001F0E5FAD4F8445200F00AFD0A22811BAD
:106300002846FFF742FE3149D4F8440201F0F1FA81
:106310000B20BDE8F88FEB7B012B1DD12B78BB4206
:1063200002D16B78434532D094F8493293B1284971
:10633000D4F8440201F0C3FAD4F8445200F0E8FC67
:106340000A22811B2846FFF720FE2049D4F8440288
:1063500001F0CFFA0D20DCE75A4518D0BBB994F80C
:10636000493293B11B49D4F8440201F0A8FAD4F899
:10637000445200F0CDFC0A22811B2846FFF705FE9F
:106380001249D4F8440201F0B4FA0220C1E74FF4F4
:10639000FA7000F0B5FC8FE794F8493293B10E49DA
:1063A000D4F8440201F08BFAD4F8445200F0B0FC67
:1063B0000A22811B2846FFF7E8FD0849D4F8440269
:1063C00001F097FA0320A4E7AEA10D00C19F0D00D4
:1063D000E8A10D001CA20D0055A20D007AA20D002F
:1063E000F7B504460D461746FEF7ABFD94F8493263
:1063F00043B12449D4F8440201F061FA2946204609
:10640000FFF77EF894F836328BB93A462946204693
:10641000FEF7BEFC064680B194F8493223B11A4912
:10642000D4F8440201F065FA304603B0F0BD012B08
:1064300003D129462046FEF745FD0FB32A7894F88C
:106440004932062A0ED123B11049D4F8440201F092
:1064500050FA6B782A78009729462046FFF7A2FD6C
:106460000646E1E723B10A49D4F8440201F041FAB3
:106470006B782A78009729462046FFF703FFEFE75D
:106480003E46D1E795A20D00A0A20D00B8A20D00D6
:10649000DEA20D0037B590F8364205460A467CB1BB
:1064A00040F60603C5F860330023A5F8663305F50A
:1064B00058712846FFF794FF0B2811D1012013E0F3
:1064C000019190F84812D0F8380202F0E7F8D5F8B8
:1064D000380202F003F9019A0028E1D0204603E0D7
:1064E000A0F10D035842584103B030BD002310B550
:1064F000C0F8381280F8363280F8482240F24C4119
:106500000446FFF7C7FF60B940F24C412046FFF751
:10651000C1FF30B9204640F24C41BDE81040FFF7C2
:10652000B9BF012010BD0000104B10B5C0F860339A
:1065300000230A46A0F866331C46D0F86813CC54F2
:106540000133B0F86213DBB28B42F6DBD0F868138C
:10655000FF230B71D0F868134B7100F55871FFF7EA
:106560003FFFA0F10A035842584110BD06090C0034
:1065700010B5084CC0F860430024A0F8664380F8CA
:106580004D1200F55871FFF72BFFA0F10B03584295
:10659000584110BD0600010037B515461A4604469D
:1065A0000193FFF7E5FF88B1094BC4F8603300237E
:1065B000A4F86633019A84F85B5204F558712046BA
:1065C000FFF70EFFA0F10A035842584103B030BD57
:1065D0000600140013460A460021FFF7DDBF000045
:1065E000F7B590F8885390F8493204460A46FDB151
:1065F00090F889539DB123B12E49D0F8440201F09F
:1066000078F90723012204F558712046FFF7ABFC07
:1066100094F89953C5F38005284603B0F0BD0BB933
:106620000025F9E72449D4F8440201F062F9F3E7C0
:1066300033B10191D0F84402204901F05AF9019A8E
:1066400040F20173C4F8603304F558712046FFF737
:10665000C7FE0B28064628D00D2894F8497211D1A0
:1066600094F86033012B07D10FB31549D4F84402D5
:1066700001F03FF93D46CFE7282B03D1002FCFD0C3
:106680001049D0E7002FCBD00F49D4F8440201F0D5
:1066900016F90D2E98BF0D4BD4F8440294BF53F851
:1066A00026100B4901F01BF9B6E70125B4E71D469A
:1066B000B2E700BF07A30D001DA30D0036A30D0018
:1066C00046A30D008AA30D00CCA30D00B0A40D00BD
:1066D000639B0D0010B590F99933002B044601DB44
:1066E000FFF77EFF94F89933D4F8880003F07B031A
:1066F00084F8993310BD10B590F899335B060446C1
:1067000001D4FFF76DFF94F89933D4F88C0023F08F
:10671000440384F8993310BD10B590F89B33DB0720
:10672000044601D4FFF75CFFD4F8983394F8AD0029
:1067300023F0807323F48063C4F8983310BD10B540
:1067400090F89B335B07044601D4FFF749FFD4F868
:106750009833D4F8B00023F00423C4F8983310BD64
:1067600001757047F8B507460C4615461E4602F0FF
:106770001DF9397D01F092FF02F018F92146FEF76C
:1067800097FA0024A64207DD02F010F90368295D9C
:106790009B6898470134F5E702F008F9BDE8F84036
:1067A00001F09CBF07B501238DF807200DF107020A
:1067B000FFF7D8FF03B05DF804FB38B504460D467B
:1067C00002F0F4F8217D01F069FF02F0EFF82946AC
:1067D000FEF76EFA02F0EAF8002101F07BFF08B143
:1067E000002038BD02F0E2F8217D012201F053FFC4
:1067F0000128F5D102F0DAF803685B699847C0B266
:10680000EFE708B50021FFF7D8FFC0F3C00008BDCF
:1068100038B50D460E210446FFF7CFFF20F00302E6
:1068200042EA95022046D2B2BDE838400E21FFF779
:10683000B9BF38B50D462A210446FFF7BEFF20F048
:10684000300242EAC5022046D2B2BDE838402A21D1
:10685000FFF7A8BF08B52221FFF7AFFF03064CBF23
:1068600000F07F00002008BD10B511210446FFF79D
:10687000A4FF40F04000C2B211212046FFF792FF72
:1068800020465022BDE810401221FFF78BBF10B503
:106890002A210446FFF791FF2A2100F0FE0220463C
:1068A000BDE81040FFF77EBF10B52A210446FFF770
:1068B00084FF40F00100C2B22A212046BDE810400A
:1068C000FFF770BF38B541751546044602F06EF803
:1068D00001F0B2FE0D212046FFF76FFF2A2812D1EA
:1068E0002046FFF7D4FF617D2046FFF791FF294640
:1068F0002046FFF79EFF2046FFF7B6FF2046FFF732
:10690000D3FF012038BD0020FCE700002DE9F04155
:1069100004460E4604300A49DFF8248000F097FE52
:1069200004F1180504F5D47728464146143500F0E3
:106930008EFEAF42F8D126702046BDE8F08100BF40
:1069400083A10D0010B504460846C4F8A8112178AB
:1069500001F0A4FED4F8A80101F0C0FEB0FA80F066
:10696000400910BD70B58AB00446019102A857498C
:1069700000F06DFE019A2178D4F8A80101F08BFE99
:10698000D4F8A80103685B6998470A22014606A863
:1069900000F0C2FE06A902A800F0A4FE06A800F0BE
:1069A0000BFED4F8A80103685B6998470A220146E8
:1069B00006A800F0B1FE06A902A800F0EBFE06A8AA
:1069C00000F0FAFDD4F8A80103685B6998470A2231
:1069D000014606A800F0A0FE06A902A800F0DAFE13
:1069E00006A800F0E9FDD4F8A80103685B699847A0
:1069F0000A22014606A800F08FFE06A902A800F0B0
:106A0000C9FE06A800F0D8FDD4F8A80103685B69A8
:106A100098470A22014606A800F07EFE06A902A8B1
:106A200000F0B8FE06A800F0C7FDD4F8A80103687E
:106A30005B6998470A22014606A800F06DFE06A988
:106A400002A800F0A7FE251D06A800F0B5FD02A9CA
:106A5000284600F02DFE1E49284600F0B0FED4F86E
:106A6000A8311A685269B8B118469047D4F8A801FD
:106A700003685B699847D4F8A80103685B69984785
:106A8000D4F8A80103685B6998470025656102A8EE
:106A900000F092FD0AB070BD184690470506D4F884
:106AA000A80103685B69984745EA0045D4F8A80146
:106AB00003685B6998470646D4F8A80103685B69D8
:106AC0009847054345EA0625E0E700BF83A10D008E
:106AD000459A0D0038B50C4605460A212046043477
:106AE000FFF740FF2146284600F0F1FD024920460D
:106AF00000F000FE284638BD83A10D002DE9F043CB
:106B000089B004460F4668465D49DFF8788100F099
:106B10009EFD1421264611FB0747B74200F0A980CD
:106B20002178D4F8A8010A2201F0B5FDD4F8A80113
:106B300003685B6998470A22014604A800F0ECFD4F
:106B400004A9684600F0CEFD04A800F035FDD4F895
:106B5000A80103685B6998470A22014604A800F06F
:106B6000DBFD04A9684600F015FE04A800F024FD32
:106B7000D4F8A80103685B6998470A22014604A873
:106B800000F0CAFD04A9684600F004FE04A800F065
:106B900013FDD4F8A80103685B6998470A220146EF
:106BA00004A800F0B9FD04A9684600F0F3FD04A8AC
:106BB00000F002FDD4F8A80103685B6998470A2237
:106BC000014604A800F0A8FD04A9684600F0E2FD13
:106BD00004A800F0F1FCD4F8A80103685B699847A9
:106BE0000A22014604A800F097FD04A9684600F0B7
:106BF000D1FD06F1180504A800F0DEFC6946284620
:106C000000F056FD4146284600F0D9FDD4F8A831E1
:106C10001A685269A0B118469047D4F8A8010368D1
:106C20005B699847D4F8A80103685B699847D4F872
:106C3000A80103685B6998470025B56214366CE7C4
:106C4000184690470506D4F8A80103685B69984781
:106C500045EA0045D4F8A80103685B699847814676
:106C6000D4F8A80103685B699847054345EA0925FC
:106C7000E3E7684600F0A0FC09B0BDE8F08300BF80
:106C800083A10D00459A0D001421FFF737BF0000C6
:106C900008B5024B1B689B68019308BD680203009E
:106CA00008B5024B1B68DB68019308BD680203004E
:106CB00008B5024B1B689B68019308BD2C020300BA
:106CC00008B5024B1B68DB68019308BD2C0203006A
:106CD00008B5024B1B681B69019308BD2C02030019
:106CE00008B5024B1B685B69019308BD2C020300C9
:106CF00008B5024B1B685B68019308BD18020300CE
:106D000008B5024B1B68DB68019308BD180203003D
:106D100008B5024B1B685B69019308BD18020300AC
:106D200008B5024B1B685B6C019308BD4802030069
:106D300008B5024B1B689B6C019308BD4802030019
:106D400008B5024B1B685B69019308BD6402030030
:106D500008B5024B1B681B68019308BD3C02030089
:106D600008B5024B1B68DB68019308BD3C020300B9
:106D700008B5024B1B681B69019308BD3C02030068
:106D800008B5024B1B685B69019308BD3C02030018
:106D900008B5024B1B689B69019308BD3C020300C8
:106DA00008B5024B1B68DB69019308BD3C02030078
:106DB00008B5024B1B681B6A019308BD3C02030027
:106DC00008B5024B1B689B6A019308BD3C02030097
:106DD00008B5024B1B68DB68019308BD280203005D
:106DE00008B5024B1B689B69019308BD280203008C
:106DF00008B5024B1B68DB69019308BD280203003C
:106E000008B5024B1B681B6A019308BD28020300EA
:106E100008B5024B1B685B6A019308BD280203009A
:106E200008B5024B1B689B6A019308BD280203004A
:106E300008B5024B1B68DB6A019308BD28020300FA
:106E400008B5024B1B681B6B019308BD28020300A9
:106E500008B5024B1B685B6B019308BD2802030059
:106E600008B5024B1B681B6C019308BD2802030088
:106E700008B5024B1B689B6C019308BD28020300F8
:106E800008B5024B1B68DB6C019308BD28020300A8
:106E900008B5024B1B681B6D019308BD2802030057
:106EA00008B5024B1B68DB69019308BD3002030083
:106EB00008B5024B1B681B6A019308BD3002030032
:106EC00008B5024B1B681B68019308BD4C02030008
:106ED00008B5024B1B685B68019308BD4C020300B8
:106EE00008B5024B1B681B69019308BD4C020300E7
:106EF00008B5024B1B685B69019308BD4C02030097
:106F000008B5024B1B689B69019308BD4C02030046
:106F100008B5024B1B68DB69019308BD4C020300F6
:106F200008B5024B1B681B6A019308BD4C020300A5
:106F300008B5024B1B681B6D019308BD600203007E
:106F400008B5024B1B685B68019308BD2002030073
:106F500008B5024B1B685B69019308BD2002030062
:106F600008B5024B1B68DB6A019308BD20020300D1
:106F700008B5024B1B68DB6C019308BD20020300BF
:106F800008B5024B1B685B6D019308BD200203002E
:106F900008B5034B1B68D3F88830019308BD000087
:106FA0002002030008B5034B1B68D3F8943001930B
:106FB00008BD00002002030008B5034B1B68D3F88E
:106FC000AC30019308BD00002002030008B5024B5D
:106FD0001B685B68019308BD4002030008B5024BC3
:106FE0001B689B68019308BD4002030008B5024B73
:106FF0001B68DB68019308BD4002030008B5024B23
:107000001B681B69019308BD4002030008B5024BD1
:107010001B685B69019308BD4002030008B5024B81
:107020001B689B69019308BD4002030008B5024B31
:107030001B68DB69019308BD4002030008B5024BE1
:107040001B681B6A019308BD4002030008B5024B90
:107050001B681B6B019308BD4002030008B5024B7F
:107060001B685B6B019308BD4002030008B5024B2F
:107070001B681B68019308BD4402030008B5024B5E
:107080001B685B68019308BD4402030008B5024B0E
:107090001B685B69019308BD4402030008B5024BFD
:1070A0001B681B6A019308BD4402030008B5024B2C
:1070B0001B68DB6B019308BD4402030008B5024B5B
:1070C0001B681B68019308BD1C02030008B5024B36
:1070D0001B685B68019308BD1C02030008B5024BE6
:1070E0001B689B68019308BD1C02030008B5024B96
:1070F0001B68DB6A019308BD1C02030008B5024B44
:107100001B681B6B019308BD1C02030008B5024BF2
:107110001B685B6C019308BD1C02030008B501F0FD
:107120006DFCBDE8084001F0DCBA10B50446017002
:1071300009B1FFF7F3FF204610BD08B501F05EFC72
:10714000BDE8084001F0D6BA10B5037804460BB18B
:10715000FFF7F3FF204610BD10B504460068FFF7A7
:10716000ECFF204610BD30B587B00D460190FFF70B
:10717000D5FF6B238DF808300023012403930A23E5
:1071800005938DF8104001F039FC02A901F08AFA4C
:1071900001F034FC036829469B68984701F02EFCF7
:1071A000214601F097FA039401F028FC02A901F0AE
:1071B00049FA01F023FC03685B699847044601A87B
:1071C000FFF7CAFFE0B207B030BD70B586B0144615
:1071D0000D460190FFF7A2FF6B238DF808300023C6
:1071E000039301260A2305938DF8106001F006FC35
:1071F00002A901F057FA01F001FC036829469B68D7
:10720000984701F0FBFB036821469B68984701F013
:10721000F5FB314601F05EFA01A8FFF79DFF06B0CD
:1072200070BD13B504460190FFF778FF0121204699
:10723000FFF799FF012100F0CF022046FFF7C5FFBD
:1072400001A8FFF789FF012002B010BD00224068AD
:107250001146FFF7F3BE002240681146FFF7FEBE5D
:1072600040680022FFF7F2BE4068002281F0010171
:10727000FFF7DCBE002340681A461946FFF7CEBE72
:10728000002340681A461946FFF7C0BE0022406836
:107290001146FFF7B3BE002240681146FFF79EBEBD
:1072A000406800220221FFF7A1BE002340681A4671
:1072B000FFF78CBE024B03225A60024A1A607047E5
:1072C00004E60320F0A40D0010B504460846217022
:1072D000FFF7E6FD00236360204610BD10B50446AD
:1072E000006818B1FFF7F2FE0023236010BD10B54F
:1072F0000446FFF7F3FF204610BD38B5B1F904305E
:1073000083800B460D4653F8062FC0F806209B8855
:1073100043810446FFF7E2FF2B6813B1236000238B
:107320002B60204638BD000038B50C460546FFF7F7
:10733000D5FF44B12088FFF7C1FE286028B122881C
:10734000214602F0EDF9002038BD0148FCE700BFFE
:10735000FCFEFFFFF0B52D4D0B7D04468BB00846BB
:10736000AF1D002B38D00B681B79002B34D00022C6
:10737000274B049302A904300292ADF80C208DF83B
:107380000E20FFF719FEDDF80E30C5F8063000B20A
:10739000BDF81230ADF80C00A8800299BB802846D9
:1073A000FFF7C2FF02A8FFF799FF00232360A38025
:1073B000A37123814FF6FF736381B5F90430A38075
:1073C0003B68C4F80630BB88296863812046FFF714
:1073D000ABFF20460BB0F0BD00262023CDE90236DE
:1073E0000C4B00930C49334602AA3220FFF7A0FD54
:1073F000074B049302A94FF6F263044802968DF8F6
:107400000E60ADF80C30FFF778FFCBE70CE60320F9
:107410000000FFFF23A50D001CA50D0010B5094BB2
:10742000094C022200201A60084B2060A080A07145
:10743000A360FFF785FD2046054A0649BDE81040D8
:1074400001F004BB18E603200CE603200000FFFF58
:1074500034E00320EF720D0010B5044602F0C9F9C4
:10746000013823182046834206D90278197800F89B
:10747000011B03F80129F6E710BD70B50C46911EFB
:107480002229054622D820466DB1B5FBF2F602FB53
:107490001655E9B2092D94BF30315731C9B200F801
:1074A000011B3546F0E7024623443021934202D9BE
:1074B00002F8011BFAE71A1A834238BF00220023A0
:1074C00083542046FFF7C8FF204670BD0020FCE72C
:1074D00038B5031E0C4615460EDAB3F1004F4FF0D7
:1074E0002D0214BF5842184601230A702A46194437
:1074F000FFF7C3FF204638BD0123F9E72DE9F04728
:1075000057EC106B80460C4610EE100A0022002348
:10751000394601F0D7FE28B107F100431F462D235D
:1075200004F8013B00234FF001090A22D9B2884533
:1075300003D902FB09F90133F8E7484601F0E6FBFD
:1075400032463B4601F04CFC06460F4601F058FF20
:1075500005468A4601F00EFC02460B463046394687
:1075600001F086FA134B002201F0C0FE10B1013584
:107570004AF1000A4A462846D317514601F028FF2F
:107580000123154621460A22FFF777FFB8F1000FC5
:107590000DD0204602F02DF92E23211823540A2263
:1075A000434628460131BDE8F047FFF766BFBDE816
:1075B000F08700BF0000E03F10B504460068FFF709
:1075C00085FD204610BD10B50446006808B1FFF7E0
:1075D0007DFD0023C4E90133236010BD38B50446A6
:1075E0000D4600680131FFF779FD10B1C4E90005CF
:1075F000012038BD10B50368044623B143688B42AF
:1076000001D3012010BD2046FFF7E8FF0028F9D084
:10761000A368002BF5D122681370F2E737B50D4649
:10762000114601920446FFF7E5FF019A28B920466A
:10763000FFF7C9FF204603B030BDA260294620688D
:1076400002F06EF82268A3680021D154F2E700230B
:1076500013B5C0E9003304468360037341B10846A3
:10766000019102F0C6F8019902462046FFF7D6FFC5
:10767000204602B010BD38B5054600680C4668B11A
:107680006A688B689A4207D3096802F08DF8A3688C
:10769000AB600023A36038BDFFF718FD23682B60A3
:1076A00063686B60A368AB600023C4E90033F1E753
:1076B000884210B5044605D00B682BB18A6819467C
:1076C000FFF7ACFF204610BDFFF77DFFFAE710B5CE
:1076D00000230446C0E9003383600373FFF7E8FF2B
:1076E000204610BD884210B5044601D0FFF7C3FF05
:1076F000204610BD13B5044659B10846019102F069
:1077000078F8019902462046FFF788FF204602B02C
:1077100010BDFFF758FFF9E710B504468AB0002303
:10772000C4E90033A3602373084601A9FFF7D0FE24
:1077300001A92046FFF7DEFF20460AB010BD10B5B4
:1077400004468AB000230846C4E90033A3602373CB
:1077500001A9C0B2FFF7D2FE01A92046FFF7CAFF78
:1077600020460AB010BD70B505460E4609B9002086
:1077700070BD6AB1846814442146FFF73BFF0028BE
:10778000F5D02868AB683146184402F00DF8AC60BB
:107790000120EDE78A680968FFF7E5BF13B50446E5
:1077A000084651B1019102F024F8019902462046A1
:1077B00002B0BDE81040FFF7D6BF02B010BD08B55B
:1077C00082683AB921B10878B0FA80F0400900E047
:1077D000012008BD006809B90078F5E701F0DAFF7B
:1077E000F2E710B5036804469B689847A368013B1D
:1077F000A3602BB923682046DB68BDE8104018471A
:1078000010BD10B50446006808B1FFF791FA204694
:1078100010BD0B68036013B15A6801325A6070479B
:1078200010B50446006828B14368013B43600BB9BA
:10783000FFF7D7FF204610BD10B5064C00232046A9
:107840002360FFF76DFA2046034A0449BDE8104063
:1078500001F0FCB81CE6032034E0032003780D009F
:10786000F8B506460D468F180024BD420CD033688B
:1078700015F8011B9B6830469847031E01DB1C442A
:10788000F3E7002C08BF1C462046F8BD13B504469C
:10789000084659B1019101F0ACFF23680199DB68FA
:1078A0000246204602B0BDE81040184702B010BDA5
:1078B00008B5FFF7EBFF08BD03689B68184708B5DC
:1078C000FFF7E4FF08BD38B50D210546FFF7F4FFCB
:1078D0000A2104462846FFF7EFFF204438BD38B59B
:1078E0000546FFF7D3FF04462846FFF7ECFF204488
:1078F00038BDFFF7F4BF30B58BB000238DF82430CE
:10790000012A98BF0A2209AC0D46B1FBF2F101FB36
:10791000125303F0FF03092B94BF30333733DBB22C
:10792000AA4204F8013DEFD92146FFF7AFFF0BB0A3
:1079300030BD00002DE9F74F55EC104B06460F46C1
:1079400010EE102A10EE100A2B46294601F0E2FC38
:1079500040B153493046FFF799FF8246504603B085
:10796000BDE8F08F25F000494E4B4FF0FF32204626
:10797000494601F0CFFC48B94A4B4FF0FF32204650
:10798000494601F0A9FC08B94749E3E7474B4FF0E6
:1079900060422046294601F0B3FC08B14449D9E7CA
:1079A000444B4FF060422046294601F08BFC0028F2
:1079B000F4D1002200232046294601F083FCD0B1F7
:1079C0002D213046FFF778FF05F1004382461D4622
:1079D0003949DFF8EC904FF0000B00204FF0000821
:1079E0005FFA8BF39F4208D942464B4601F022FBD7
:1079F0000BF1010BF4E78246EAE722462B4601F041
:107A000039F80D46044601F0C3FC804601F06EF9DA
:107A100002460B462046294601F02AF80A2204466F
:107A20000D4630464146FFF766FF824427B12349A1
:107A30003046FFF72BFF8244DFF884904FF00008B8
:107A4000013FFFB2FF2F89D042464B4620462946D0
:107A500001F0C6F904460D4601F072FCB0F1000BCE
:107A60001ADA2D213046FFF727FFCBF1000103463C
:107A70000A2230460193FFF73EFF019B18448244DF
:107A8000584601F043F902460B462046294600F0CD
:107A9000EFFF04460D46D3E759460023E8E700BF51
:107AA0004AA50D00FFFFEF7F4EA50D00FFFFEF4140
:107AB00052A50D00FFFFEFC10000E03FBB980D0095
:107AC0000000244038B5C9B20546FFF733FF04462D
:107AD0002846FFF7F8FE204438BD0000014B024A5B
:107AE0001A60704720E6032056A50D00024B1A6865
:107AF000024B1A60704700BFCCDF032024E603204E
:107B00000021FFF725BA10B58368044613B103229C
:107B100001469847204610BD10B50446FFF7F3FF15
:107B2000204610BD13B50B460246D0E900016C4655
:107B300084E8030093E8030082E8030094E803006C
:107B400083E8030002B010BD0348044A044900233F
:107B5000836000F07BBF00BF28E6032034E00320F1
:107B6000197B0D00014B1860704700BFD0DF032068
:107B700008B50B4B43B100F019FC03681B6998472B
:107B8000002801DDAFF30080064B43B100F0D8FCC4
:107B900003681B699847002801DDAFF3008008BD2A
:107BA000000000000000000008B5FFF7E1FFFFF74C
:107BB000AFF8014B186008BDBCE703200248034A38
:107BC0000349121A01F0ACBD00F4032004F40320B1
:107BD000C8A60D0007B5002300931A466FF0770181
:107BE000FFF7E0F903B05DF804FB000007B5438838
:107BF0000A2B08D0502B0BD1094B1B684BB103B09B
:107C00005DF804EB1847FFF7E5FF03B05DF804FBF0
:107C1000002300931A466FF07701FFF7C3F9F4E7EA
:107C20003CE6032038B5124C1248134D0021FFF7F3
:107C30006DFA2368AB42114B0CBF012200221A706F
:107C400002D0FFF7BBFF2560FFF752F8044601F0B2
:107C50007DFD0B4B13B12046AFF300800021084897
:107C6000FFF724FABDE8384006480021FFF790B935
:107C700000F40320657B0D001E1C279A38E60320C4
:107C800000000000ED7B0D0070470020704710B52C
:107C90001021044600F0DFFE204610BD08B5FFF7B6
:107CA000F6FF08BD30B500224FF69C740260848058
:107CB0008D888C800C68858004600A6030BD10B5AA
:107CC00004460068FFF702FA204610BD38B5C468C4
:107CD000F4B12378022B03D104F10C00FFF7EFFF7E
:107CE000656835B12846FFF70EFF1021284600F0E1
:107CF000B2FEA56835B12846FFF705FF10212846DA
:107D000000F0A9FE20461421BDE8384000F0A3BED3
:107D100038BD10B588B004466846FFF798FC694640
:107D200004A8FFF7D4FC04A8A047044604A8FFF762
:107D300043FC6846FFF740FC204608B010BD1FB565
:107D40000023CDE90201019210241A466946184623
:107D5000ADF80230ADF80040FFF790F904B010BD67
:107D600073B50E46044656F8043B00930D4601A831
:107D70003146FFF74EFD019A009B6260236001A827
:107D8000002301930093FFF74BFD3046FFF748FDBA
:107D90002846082100F05FFE204602B070BD8268D0
:107DA00010B50AB900F05DFEBDE81040C368184781
:107DB00008B5006800F11001FFF7F1FF08BD826807
:107DC00010B50AB900F04DFEBDE81040C368184771
:107DD00008B5006800F11001FFF7F1FF08BD0000D1
:107DE00038B500230446036010200D46FCF753F914
:107DF00028B10123C0E90133024B0360C560206054
:107E0000204638BD80A50D0038B5002383608B68FF
:107E100004460D462BB102229847EB68E360AB683D
:107E2000A360204638BD0000F0B589B004686846FC
:107E3000FFF738FF4FF00203D4E84F2F002A03D199
:107E4000C4E8413F0029F7D125D104F10C0569466A
:107E50002846FFF727FFBFF35B8F012363700020E5
:107E600004F10803BFF35B8F53E8006F43E800029F
:107E7000002AF9D1BFF35B8F6EB1FFF779F878B1C3
:107E800029463046FFF78BFF3046FFF73CFE1021B6
:107E9000304600F0E0FD6846FFF711FF09B0F0BD85
:107EA000314602A8FFF7B0FFE068B4F9105008B1FE
:107EB00001F082FC06901020ADF81C50FCF7EBF8A6
:107EC0000546E8B1002787601820FCF7E4F804466F
:107ED00088B10146876002A8FFF724FE049BA268D0
:107EE000A360059B049206A9E268E36004F1100018
:107EF0000592FFF7D7FE084BEB60084B2C60AB6098
:107F000006A8FFF7DCFE02A8FFF7FDFD00222946C8
:107F10000348FFF735F8B7E7B17D0D0049800D0044
:107F200095850D002DE9F0478AB005469DF84890EB
:107F30000C4617469846FFF7A9F807AE824638BBAD
:107F40004FF62E73059005A93046ADF81830FFF7AF
:107F5000A9FE1420FCF79FF8044648B102230370E1
:107F60000123C0E901AA437031460C30FFF79AFEA5
:107F70002846214640F8044BFFF732FF3046FFF712
:107F80009EFE05A8FFF79BFE28460AB0BDE8F087D5
:107F90000C234FF0000A1420CDE908AA0793FCF740
:107FA0007AF8014628B1C0E901AA80F800A080F85B
:107FB00001A004A80391FFF713FF224B08930820A8
:107FC000FCF769F8824628B1039B40F8043B04A9FA
:107FD000FFF71FFC00965FFA89F3424639462046B8
:107FE000CDF824A0FFF75AF8B8B9039B5B7803F0EB
:107FF000FF0293B94FF69C7305A903A80592ADF84B
:108000001830FFF711FF05A8FFF759FE05A80999D9
:10801000FFF7A6FE06A8FFF703FC039B059304A940
:1080200006A8FFF7F6FB059B069A2B606A60002303
:1080300006A806930593FFF7F3FB04A8FFF7F0FBF0
:10804000A2E700BF0D810D00022AF8B5054607D052
:10805000032A18D0012A01D10B6803600020F8BD63
:1080600018200E68FCF717F8044650B13146FFF7A8
:10807000CBFE3069B6F9147008B101F09DFB2061A8
:10808000A7822C60EAE70468002CE7D004F1100016
:10809000FFF715FE2046FFF736FD1821204600F0B9
:1080A000DAFCDBE738B5002383608B6804460D46B5
:1080B0002BB102229847EB68E360AB68A3602046CF
:1080C00038BD022A70B5044607D0032A12D0012A0F
:1080D00001D10B680360002070BD14200E68FBF70F
:1080E000DAFF054620B13146FFF7DCFF337C2B7405
:1080F0002560F0E70468002CEDD02046FFF703FD73
:108100001421204600F0A7FCE5E70000F0B589B097
:1081100004460D4601A81146FFF722FEA4B124B281
:108120001DB1284601F048FB054601A803A90395A7
:10813000ADF81040FFF778FE03A8FFF7C0FD02A8D6
:10814000FFF76EFB09B0F0BD019D0123D5E84F2F6D
:10815000002A03D1C5E8413F0029F7D1EFD12B73A5
:10816000BFF35B8F6B702B1DBFF35B8F53E8006F0A
:1081700043E80042002AF9D1BFF35B8F002EDED026
:108180002046FEF7F5FE074660B105F10C013046CA
:10819000FFF715FE3046FFF7B6FC1021304600F021
:1081A0005AFCCCE7314603A8FFF77CFF2B7B8DF808
:1081B0001C301020FBF76FFF0546D0B187601420FC
:1081C000FBF769FF044678B18760014603A8FFF713
:1081D000A9FC059BA268A360069B0592E268E36088
:1081E0009DF81C3006922374064BEB60064B2C6006
:1081F000AB6003A8FFF787FC002229460348FEF77F
:10820000BFFEC7E7D17D0D00C3800D0095850D0031
:10821000704710B51821044600F01DFC204610BD23
:10822000F0B5037D062B8DB00E4600F104074FF02C
:10823000000412D000F1080515F8011D0A2230468D
:10824000FFF759FBAF42044419D0002CF4D02E2183
:108250003046FFF731FB0444EEE72F236A463946E8
:108260000A208DF80040FEF76BFD684601F0C1FA68
:1082700033680246DB686946304698470446204624
:108280000DB0F0BD10B5054B0446112240F8043B7B
:10829000002101F053FA204610BD00BF9CA50D003F
:1082A0000346074A10B543F8042B01F1100251F8B8
:1082B000044B43F8044B9142F9D10A781A7010BD6F
:1082C0009CA50D0010B59DF8084044EA032343EA3D
:1082D000024242EA016104234160037510BD13B5F7
:1082E000CB7800938B784A780978FFF7EBFF02B0E0
:1082F00010BD41747047704708B50021007CFEF73F
:10830000FFFD40EAE07008BD08B50121007CFEF7E2
:10831000F7FD40EAE07008BD08B5007CFEF7E8FD17
:1083200020EAE07008BD08B5007CFEF7D9FD20EA20
:10833000E07008BD13B50446007C0191FEF7D8FD3E
:108340000028019901DC607C20B1207CFEF7E0FD73
:1083500020EAE07002B010BD007CFEF7E1BD10B570
:108360001421044600F077FB204610BD10B54FF4F1
:108370007A73044608460021C4E90113044B2360C4
:108380000123207463741146FEF79AFD204610BD48
:10839000B0A50D00007C0022FEF79ABD10B5142296
:1083A0000446002101F0CAF9204610BD10B5104C5A
:1083B00088B003A8FFF7F2FF2178BFF35B8F11F0BD
:1083C000010111D120460191FBF76BFE019958B1D3
:1083D00003AA0848FFF7CAFF2046FBF767FE064AD4
:1083E0000649044800F032FB024808B010BD00BF47
:1083F00040E6032044E6032034E00320F7820D002A
:10840000002240681146FEF7F9BD0022406811467F
:10841000FEF714BE002240681146FEF71FBE4068FA
:108420000022FEF713BE4068002281F00101FEF732
:10843000FDBD002340681A461946FEF7EFBD002334
:1084400040681A461946FEF7E1BD00224068114611
:10845000FEF7C4BD406800220221FEF7C7BD00231D
:1084600040681A46FEF7B2BD084B10B528242246D4
:108470001846002101F062F9054B04804FF0FF32ED
:10848000426004225A60034A1A6010BD60E603206D
:1084900058E60320E0A50D0070474174704708B509
:1084A000007CFEF78DFC20EAE07008BD08B5007C7A
:1084B000FEF75EFC20EAE07008BD08B5007CFEF720
:1084C00067FC40EAE07008BD08B5007CFEF758FC88
:1084D00040EAE07008BD007CFEF762BC37B5457C21
:1084E00004462DB1207C03B0BDE83040FEF738BC17
:1084F000007C0191FEF764FC00280199F2DC28461B
:1085000003B030BD10B51421044600F0A4FA204693
:1085100010BD000010B54FF0000C0446084611468F
:108520004FF47A72C4E901C2044A22600122207425
:1085300062741A46FEF70CFC204610BD14A60D000E
:1085400013B50E4C2178BFF35B8F11F0010112D1EE
:1085500020460191FBF7A5FD019960B1084A094B3E
:108560000948FFF7D7FF2046FBF7A0FD074A084957
:10857000054800F06BFA044802B010BD88E60320FD
:108580008CE6032010E7032094E7032034E0032067
:1085900099840D0010B5836804460BB900F061FAA8
:1085A000C3689847A3681BB1032221462046984719
:1085B00020461021BDE8104000F04DBA7047F8B5D4
:1085C000064615460C468F18BC4206D0336814F890
:1085D000011B9B6830469847F6E72846F8BD007CAB
:1085E0000022FEF70DBC007C0021FEF711BC007CD0
:1085F0000021FEF715BC007C0021FEF719BC007CB1
:108600000021FEF71DBC10B51421044600F023FA2A
:10861000204610BD10B54FF47A7304460846002179
:10862000C4E90113034B236020741146FEF718FCC4
:10863000204610BD44A60D000023007C1A461946B2
:10864000FEF7C6BB7FB500221423CDE90122ADF8A9
:1086500004300B788DF808304B680393CB68049393
:10866000007C0B7A059301A9FEF712FC07B05DF8B8
:1086700004FB1FB5003B8DF800104FF0640103911F
:1086800018BF0123694601928DF80830FFF7DAFF21
:1086900005B05DF804FB0123FFF7EBBF007C00226F
:1086A000FEF79EBB7FB50023CDE901334A680392F4
:1086B0001423CA68ADF804300B7804920A7A059244
:1086C000007C8DF8083001AA1946FEF789FB07B037
:1086D0005DF804FB007C0022FEF78ABB0121FFF756
:1086E000F9BF08B50021007CFEF7C2FBB0FA80F0AC
:1086F000400908BD08B50021007CFEF7C1FBB0FAB7
:1087000080F0400908BD002340681A46FEF75EBCB1
:10871000406800220221FEF769BC00224068114631
:10872000FEF75CBC002240681146FEF767BC0023E0
:1087300040681A461946FEF769BC002340681A468D
:108740001946FEF76BBC4068002281F00101FEF77C
:108750006DBC40680022FEF779BC002240681146DB
:10876000FEF77CBC002240681146FEF767BC2DE98D
:10877000F043002495B016460D460746FFF782FDEC
:10878000214618220EA8009400F0D8FF4023CDE91E
:108790000C3421466B460CAA3046FEF781FA04469B
:1087A000002846D1024601216868FEF727FC022115
:1087B000804622466868FEF721FC009E81462146DD
:1087C000002E36D0002934D17368022B03D00A2B37
:1087D0000BD0F669F4E7B8F1000F04D071693846A0
:1087E0000431FFF77CFD4146F3E7B9F1000F01D1F9
:1087F0004946EEE77469102201A800F09FFF0623A6
:108800008DF8143001AD04F1080318341868596864
:108810002A4603C20833A3421546F7D101A906A888
:1088200007ADFFF73DFD0FCD3C1D0FC42B68237036
:10883000DEE70098FEF72CFA384615B0BDE8F08365
:10884000024B034A1A6000225A607047A8E70320CF
:108850006CA60D00232813B502D9002002B010BD6C
:10886000A0F10B03022B1AD8174C2178BFF35B8FB2
:1088700011F001010BD120460191FBF712FC019987
:1088800028B11248FEF720FD2046FBF70FFC0F4BE6
:108890001878FEF70DFB0028DFD10120DEE7012864
:1088A00009D800F083F80021007CFEF7D1FA80F0AF
:1088B0000100C0B2D2E709380128EED8FFF740FE28
:1088C000007CFEF775FAF2E7B0E70320B4E7032077
:1088D000232838B504460D460AD8FF2908D0FFF7EB
:1088E000B9FF28B129462046BDE83840FEF7E0B977
:1088F00038BD38B504460D46FEF7E2F9FF2810D022
:10890000062804D84D2323FA00F0C30709D42046D3
:10891000FFF7A0FF28B129462046BDE83840FEF702
:10892000D7B938BD10B50446FEF7CAF9031FDBB24C
:10893000012B08D92046FFF78DFF20B12046BDE866
:108940001040FEF7CDB9002010BD000038B500235F
:108950002025438014230446038085600561064971
:10896000284600F07CF804496060284600F077F85B
:10897000E060204638BD00BF98A60D0038B5002342
:108980002025438014230446038085600561064941
:10899000284600F064F804496060284600F05FF85B
:1089A000E060204638BD00BF98A60D0030B50F4DE1
:1089B0002978BFF35B8F11F0010487B013D12846EB
:1089C000FBF76FFB78B101A8FFF7C0FF01AA2146B2
:1089D0000748FFF71FFE2846FBF768FB054A0649D4
:1089E000034800F033F8024807B030BDC0E7032069
:1089F000C8E7032034E00320BD850D0010B50F4CFF
:108A00002378BFF35B8FDB0786B013D42046FBF7D8
:108A100048FB78B101A8FFF7B1FF01AA012108487E
:108A2000FFF7F8FD2046FBF741FB064A06490448DC
:108A300000F00CF8024806B010BD00BFC4E70320E8
:108A4000DCE7032034E00320BD850D000B46014622
:108A5000184600F057BEFBF722BBFBF71CBBFBF729
:108A60001CBB08B5FEF742FB81F0004102E000BFED
:108A700083F0004330B54FEA41044FEA430594EADE
:108A8000050F08BF90EA020F1FBF54EA000C55EA19
:108A9000020C7FEA645C7FEA655C00F0E2804FEAEA
:108AA0005454D4EB5555B8BF6D420CDD2C4480EACC
:108AB000020281EA030382EA000083EA010180EAFC
:108AC000020281EA0303362D88BF30BD11F0004F4A
:108AD0004FEA01314FF4801C4CEA113102D0404280
:108AE00061EB410113F0004F4FEA03334CEA1333BB
:108AF00002D0524263EB430394EA050F00F0A780D3
:108B0000A4F10104D5F1200E0DDB02FA0EFC22FACD
:108B100005F2801841F1000103FA0EF2801843FAC1
:108B200005F359410EE0A5F120050EF1200E012AB2
:108B300003FA0EFC28BF4CF0020C43FA05F3C018F0
:108B400051EBE37101F0004507D54FF0000EDCF169
:108B5000000C7EEB00006EEB0101B1F5801F1BD312
:108B6000B1F5001F0CD349085FEA30004FEA3C0C16
:108B700004F101044FEA445212F5800F80F09A800C
:108B8000BCF1004F08BF5FEA500C50F1000041EB10
:108B9000045141EA050130BD5FEA4C0C404141EB14
:108BA0000101013C28BFB1F5801FE9D291F0000F0F
:108BB00004BF01460020B1FA81F308BF2033A3F1BE
:108BC0000B03B3F120020CDA0C3208DD02F1140CB5
:108BD000C2F10C0201FA0CF021FA02F10CE002F1F0
:108BE0001402D8BFC2F1200C01FA02F120FA0CFCE9
:108BF000DCBF41EA0C019040E41AA2BF01EB045132
:108C0000294330BD6FEA04041F3C1CDA0C340EDC2F
:108C100004F11404C4F1200220FA04F001FA02F372
:108C200040EA030021FA04F345EA030130BDC4F130
:108C30000C04C4F1200220FA02F001FA04F340EA25
:108C40000300294630BD21FA04F0294630BD94F0D6
:108C5000000F83F4801306BF81F480110134013DBD
:108C60004EE77FEA645C18BF7FEA655C29D094EA2E
:108C7000050F08BF90EA020F05D054EA000C04BFAC
:108C80001946104630BD91EA030F1EBF0021002097
:108C900030BD5FEA545C05D14000494128BF41F036
:108CA000004130BD14F580043CBF01F5801130BD9A
:108CB00001F0004545F0FE4141F470014FF0000025
:108CC00030BD7FEA645C1ABF194610467FEA655CD6
:108CD0001CBF0B46024650EA013406BF52EA033578
:108CE00091EA030F41F4002130BD00BF90F0000F66
:108CF00004BF0021704730B54FF4806404F13204A2
:108D00004FF000054FF0000150E700BF90F0000F5A
:108D100004BF0021704730B54FF4806404F1320481
:108D200010F0004548BF40424FF000013EE700BF51
:108D300042004FEAE2014FEA31014FEA02701FBFE1
:108D400012F07F4393F07F4F81F06051704732F013
:108D50007F4208BF704793F07F4F04BF41F400216A
:108D6000704730B54FF4607401F0004521F00041C8
:108D70001CE700BF50EA010208BF704730B54FF052
:108D800000050AE050EA010208BF704730B511F053
:108D9000004502D5404261EB41014FF4806404F18B
:108DA00032045FEA915C3FF4D8AE4FF003025FEA11
:108DB000DC0C18BF03325FEADC0C18BF033202EB95
:108DC000DC02C2F1200300FA03FC20FA02F001FAEF
:108DD00003FE40EA0E0021FA02F11444BDE600BF92
:108DE00070B54FF0FF0C4CF4E06C1CEA11541DBF41
:108DF0001CEA135594EA0C0F95EA0C0F00F0DEF80C
:108E00002C4481EA030621EA4C5123EA4C5350EAF0
:108E1000013518BF52EA033541F4801143F4801341
:108E200038D0A0FB02CE4FF00005E1FB02E506F0D2
:108E30000042E0FB03E54FF00006E1FB03569CF027
:108E4000000F18BF4EF0010EA4F1FF04B6F5007F2D
:108E500064F5407404D25FEA4E0E6D4146EB06069F
:108E600042EAC62141EA55514FEAC52040EA5E5028
:108E70004FEACE2EB4F1FD0C88BFBCF5E06F1ED8D2
:108E8000BEF1004F08BF5FEA500E50F1000041EB09
:108E9000045170BD06F0004646EA010140EA0200B6
:108EA00081EA0301B4EB5C04C2BFD4EB0C0541EAD8
:108EB000045170BD41F480114FF0000E013C00F3ED
:108EC000AB8014F1360FDEBF002001F0004170BD11
:108ED000C4F10004203C35DA0C341BDC04F114042A
:108EE000C4F1200500FA05F320FA04F001FA05F2B6
:108EF00040EA020001F0004221F0004110EBD37083
:108F000021FA04F642EB06015EEA430E08BF20EAAE
:108F1000D37070BDC4F10C04C4F1200500FA04F351
:108F200020FA05F001FA04F240EA020001F00041E3
:108F300010EBD37041F100015EEA430E08BF20EA56
:108F4000D37070BDC4F1200500FA05F24EEA020E9E
:108F500020FA04F301FA05F243EA020321FA04F0CD
:108F600001F0004121FA04F220EA020000EBD37084
:108F70005EEA430E08BF20EAD37070BD94F0000F84
:108F80000FD101F00046400041EB010111F4801FB8
:108F900008BF013CF7D041EA060195F0000F18BF69
:108FA000704703F00046520043EB030313F4801FA5
:108FB00008BF013DF7D043EA0603704794EA0C0F5F
:108FC0000CEA135518BF95EA0C0F0CD050EA410675
:108FD00018BF52EA4306D1D181EA030101F00041F2
:108FE0004FF0000070BD50EA410606BF104619461A
:108FF00052EA430619D094EA0C0F02D150EA013626
:1090000013D195EA0C0F05D152EA03361CBF104666
:1090100019460AD181EA030101F0004141F0FE4105
:1090200041F470014FF0000070BD41F0FE4141F489
:10903000780170BD70B54FF0FF0C4CF4E06C1CEA89
:1090400011541DBF1CEA135594EA0C0F95EA0C0F3E
:1090500000F0A7F8A4EB050481EA030E52EA0335F9
:109060004FEA013100F088804FEA03334FF080551A
:1090700045EA131343EA12634FEA022245EA111547
:1090800045EA10654FEA00260EF000419D4208BFF8
:10909000964244F1FD0404F5407402D25B084FEAA5
:1090A0003202B61A65EB03055B084FEA32024FF451
:1090B00080104FF4002CB6EB020E75EB030E22BFAE
:1090C000B61A754640EA0C005B084FEA3202B6EB6E
:1090D000020E75EB030E22BFB61A754640EA5C001D
:1090E0005B084FEA3202B6EB020E75EB030E22BFAD
:1090F000B61A754640EA9C005B084FEA3202B6EBAE
:10910000020E75EB030E22BFB61A754640EADC006C
:1091100055EA060E18D04FEA051545EA16754FEACE
:1091200006164FEAC30343EA52734FEAC2025FEAEC
:109130001C1CC0D111F4801F0BD141EA00014FF07B
:1091400000004FF0004CB6E711F4801F04BF01434C
:109150000020B4F1FD0C88BFBCF5E06F3FF6AFAE68
:10916000B5EB030C04BFB6EB020C5FEA500C50F1F8
:10917000000041EB045170BD0EF0004E4EEA11317B
:1091800014EB5C04C2BFD4EB0C0541EA045170BD82
:1091900041F480114FF0000E013C90E645EA060EC6
:1091A0008DE60CEA135594EA0C0F08BF95EA0C0FF4
:1091B0003FF43BAF94EA0C0F0AD150EA01347FF43C
:1091C00034AF95EA0C0F7FF425AF104619462CE713
:1091D00095EA0C0F06D152EA03353FF4FDAE104676
:1091E000194622E750EA410618BF52EA43067FF4C7
:1091F000C5AE50EA41047FF40DAF52EA43057FF457
:10920000EBAE12E74FF0FF3C06E000BF4FF0010C61
:1092100002E000BF4FF0010C4DF804CD4FEA410CC5
:109220007FEA6C5C4FEA430C18BF7FEA6C5C1BD092
:1092300001B050EA410C0CBF52EA430C91EA030F13
:1092400002BF90EA020F0020704710F1000F91EA70
:10925000030F58BF994208BF90422CBFD8176FEA3E
:10926000E37040F0010070474FEA410C7FEA6C5C0C
:1092700002D150EA013C07D14FEA430C7FEA6C5C13
:10928000D6D152EA033CD3D05DF8040B704700BF3F
:109290008446104662468C461946634600E000BF8D
:1092A00001B5FFF7B7FF002848BF10F1000F01BD5F
:1092B0004DF808EDFFF7F4FF0CBF012000205DF82A
:1092C00008FB00BF4DF808EDFFF7EAFF34BF0120AF
:1092D00000205DF808FB00BF4DF808EDFFF7E0FF48
:1092E00094BF012000205DF808FB00BF4DF808ED99
:1092F000FFF7CEFF94BF012000205DF808FB00BF00
:109300004DF808EDFFF7C4FF34BF012000205DF8E1
:1093100008FB00BF4FEA410C7FEA6C5C02D150EAC7
:10932000013C0AD14FEA430C7FEA6C5C02D152EA5D
:10933000033C02D14FF0000070474FF0010070472E
:109340004FEA410212F5001215D211D56FF478736D
:10935000B3EB625212D94FEAC12343F0004343EA10
:10936000505311F0004F23FA02F018BF40427047EB
:109370004FF00000704750EA013005D111F0004075
:1093800008BF6FF0004070474FF00000704700BF0B
:109390004A0011D212F5001211D20DD56FF4787374
:1093A000B3EB62520ED44FEAC12343F0004343EAC9
:1093B000505323FA02F070474FF00000704750EA14
:1093C000013002D14FF0FF3070474FF0000070477E
:1093D00053B94AB9002908BF00281CBF4FF0FF311C
:1093E0004FF0FF3000F08CB9ADF1080C6DE904CE00
:1093F00000F024F8DDF804E0DDE9022304B0704752
:10940000D0B50C4B002206460F46FFF7E9FCFFF7EC
:10941000BFFF0446FFF76AFC074B0022FFF7E0FCA2
:1094200002460B4630463946FFF722FBFFF7B0FFF6
:109430002146D0BD0000F03D0000F0412DE9F0478D
:10944000089D04468C46002B40F083808A421746D4
:1094500047D9B2FA82F242B1C2F1200024FA00F0F8
:109460009140974040EA010C94404FEA1748230C82
:10947000BCFBF8F61FFA87FE08FB16C143EA01435E
:1094800006FB0EF1994209D9FB1806F1FF3080F076
:109490001981994240F21681023E3B445B1AA4B204
:1094A000B3FBF8F008FB103344EA034400FB0EFE64
:1094B000A64509D93C1900F1FF3380F00581A64586
:1094C00040F2028102383C4440EA0640A4EB0E041C
:1094D00000261DB1D4400023C5E900433146BDE854
:1094E000F08702B9FFDEB2FA82F2002A50D1CB1B1C
:1094F0004FEA174E1FFA87F80126B3FBFEFC210C3A
:109500000EFB1C3341EA034108FB0CF38B4207D9E5
:1095100079180CF1FF3002D28B4200F2E9808446C8
:10952000C91AA3B2B1FBFEF00EFB101143EA0144CD
:1095300008FB00F8A04507D93C1900F1FF3302D21F
:10954000A04500F2D9801846A4EB080440EA0C407C
:10955000BFE78B4209D9002D00F0B1800026C5E994
:10956000000130463146BDE8F087B3FA83F6002E9D
:109570004AD18B4202D3824200F2B880841A61EB56
:10958000030101208C46002DA8D0C5E9004CA5E7B9
:10959000C2F1200320FA03F6974001FA02F04FEAE5
:1095A000174ED9403043030CB1FBFEF61FFA87F883
:1095B0000EFB161143EA014306FB08F1994204FA37
:1095C00002F409D9FB1806F1FF3C80F08D80994226
:1095D00040F28A80023E3B445B1A81B2B3FBFEF04C
:1095E0000EFB103341EA034100FB08F38B4207D91D
:1095F000791800F1FF3C73D28B4271D9023839449B
:10960000CB1A40EA064678E7C6F1200C03FA06F4C6
:1096100022FA0CF31C4320FA0CF701FA06F34FEA86
:10962000144E21FA0CF11F433B0CB1FBFEF91FFA5B
:1096300084F80EFB191143EA014109FB08FA8A4537
:1096400002FA06F200FA06F308D9611809F1FF30B0
:1096500048D28A4546D9A9F102092144A1EB0A0161
:10966000BFB2B1FBFEF00EFB101147EA014700FB51
:1096700008F8B84507D9E71900F1FF312ED2B845EF
:109680002CD90238274440EA0940A7EB0807A0FB81
:1096900002894F45C64649461AD317D05DB1B3EB90
:1096A0000E0267EB010707FA0CFCF2404CEA0202DB
:1096B000F740C5E9002700263146BDE8F0872E4671
:1096C00028460BE70646E9E61846FDE64345E5D29F
:1096D000B8EB020E69EB04010138DFE70846D2E778
:1096E00060468DE78146B9E7664675E730464AE74A
:1096F000ACF1020C394413E702383C4424E700BFC4
:10970000704700BF10B5054C13462CB10A46014600
:109710000220AFF3008010BD2046FCE700000000EF
:109720000A44914200F1FF3300D1704710B511F89F
:10973000014B03F8014F9142F9D110BD0244034699
:10974000934200D1704703F8011BF9E738B50D4B80
:109750001D68AB6B04467BB91820FDF7AFFC0A4AC5
:109760000A4BA863C0E90023094B83600B23838164
:1097700001220023C0E90423AB6B00221C615A6163
:1097800038BD00BFD0DF03200E33CDAB34126DE601
:10979000ECDE050010F8012B11F8013B012A28BF6F
:1097A0009A42F7D0D01A7047034611F8012B03F8FC
:1097B000012B002AF9D17047024B0146186800F0CE
:1097C00003B800BFD0DF032037B5044608460D4676
:1097D00000F00FF8421C114620460192FDF78EFC66
:1097E000044618B1019A2946FFF79AFF204603B0B4
:1097F00030BD034613F8012B002AFBD1181A01389B
:109800007047000021400D005D400D0085400D00B7
:1098100089400D000000000073656E64004E6F7497
:10982000696669636174696F6E7320616C6C6F77D0
:1098300065642E0073746F70004E6F74696669639F
:109840006174696F6E732073696C656E6365642EF5
:10985000006F66660064697361726D0044697361CC
:10986000726D65640041726D656400446973616284
:109870006C696E672072656C61792032006469736F
:1098800061626C6500656E61626C65004765747449
:10989000696E67206C6F636174696F6E2E2E2E2E59
:1098A0002E2E2E2E2E2E2E2E2E2E2E2E2E2E2E2ED8
:1098B0002E2E2E2E2E2E2E2E2E2E2E2E0052656168
:1098C000647920746F207363616E20736F6D6520FF
:1098D000746167732100436F756C64206E6F742030
:1098E000636F6D6D756E6963617465207769746807
:1098F0002051776969632052464944210020416321
:1099000063656C65726F6D65746572206E6F74202F
:10991000436F6E6E65637465642E20506C65617371
:109920006520636865636B20636F6E6E6563746941
:109930006F6E732E00416363656C65726F6D657445
:10994000657220737461727465642E0055626C6F69
:109950007820475053206E6F74206465746563747B
:1099600065642061742064656661756C7420493299
:109970004320616464726573732E20506C6561735B
:109980006520636865636B20776972696E672E0076
:1099900047505320737461727465642E0063686568
:1099A000636B696E67206D6F76656D656E74004DD3
:1099B0006F76656D656E7420646574656374656447
:1099C0002E004775617264696E672E2E2E00535407
:1099D0004F4C454E204D4553534147452053454E2E
:1099E00054007477696C696F5F736D730053746FA3
:1099F0006C656E2E204C617374206C6F63617469AA
:109A00006F6E3A2068747470733A2F2F7777772EC1
:109A1000676F6F676C652E636F6D2F6D6170732F4D
:109A20007365617263682F3F6170693D312671759E
:109A30006572793D002C00436865636B696E672031
:109A40005246494400303030303030005461673A7B
:109A50002000383530373137353134323131350047
:109A6000417574686F72697A6564204163636573D8
:109A700073003134303839313033333231360038D5
:109A80003530373139373136353530004D61737403
:109A90006572204B657920417574686F72697A65CB
:109AA0006400204163636573732064656E69656457
:109AB00000686572650056656869636C65204F6E65
:109AC0000056656869636C65204F66662023232312
:109AD0002323232323232323232323232323232356
